S01700006275696C642F697269732F6D61696E2E7372656343
S11300000C947E010C949D010C949D010C949D0113
S11300100C949D010C949D010C949D010C949D01E4
S11300200C949D010C949D010C949D010C949D01D4
S11300300C949D010C9445270C949D010C94B618C6
S11300400C944B300C9481300C946D190C947819E9
S11300500C9483190C949D010C949D010C949D01A6
S11300600C94CA180C946E1B0C949D010C94F11BF7
S11300700C949D010C949D010C949D010C94481DBD
S11300800C94271D0C94321D0C943D1D0C945B1D87
S11300900C940A1D0C949D010C941C1D0C949D0140
S11300A00C949D010C949D010C949D010C949D0154
S11300B00C949D010C949D010C949D010C949D0144
S11300C00C949D010C949D010C949D014451775115
S11300D0FA512B5226538653895330549453A853C0
S11300E034515A5466544B55705572557D55A2552A
S11300F03C51E655F4550000211042206330844001
S1130100A550C660E770088129914AA16BB18CC1E2
S1130110ADD1CEE1EFF13112100273325222B55259
S11301209442F772D662399318837BB35AA3BDD332
S11301309CC3FFF3DEE36224433420040114E66429
S1130140C774A44485546AA54BB528850995EEE582
S1130150CFF5ACC58DD55336722611163006D77639
S1130160F6669556B4465BB77AA719973887DFF7D2
S1130170FEE79DD7BCC7C448E5588668A778400801
S1130180611802282338CCC9EDD98EE9AFF9488922
S113019069990AA92BB9F55AD44AB77A966A711A99
S11301A0500A333A122AFDDBDCCBBFFB9EEB799B72
S11301B0588B3BBB1AABA66C877CE44CC55C222CE9
S11301C0033C600C411CAEED8FFDECCDCDDD2AADC2
S11301D00BBD688D499D977EB66ED55EF44E133E79
S11301E0322E511E700E9FFFBEEFDDDFFCCF1BBF12
S11301F03AAF599F788F8891A981CAB1EBA10CD1EC
S11302002DC14EF16FE18010A100C230E3200450F3
S1130210254046706760B9839893FBA3DAB33DC366
S11302201CD37FE35EF3B1029012F322D232354243
S1130230145277625672EAB5CBA5A89589856EF5F6
S11302404FE52CD50DC5E234C324A0148104667493
S1130250476424540544DBA7FAB79987B8975FE746
S11302607EF71DC73CD7D326F2369106B0165766E3
S11302707676154634564CD96DC90EF92FE9C899CE
S1130280E9898AB9ABA94458654806782768C01833
S1130290E1088238A3287DCB5CDB3FEB1EFBF98BA6
S11302A0D89BBBAB9ABB754A545A376A167AF10A83
S11302B0D01AB32A923A2EFD0FED6CDD4DCDAABDB6
S11302C08BADE89DC98D267C076C645C454CA23CD3
S11302D0832CE01CC10C1FEF3EFF5DCF7CDF9BAF86
S11302E0BABFD98FF89F176E367E554E745E932E23
S11302F0B23ED10EF01E00020E060C0411241FBEE5
S1130300CFEFD1E2DEBFCDBF1BE0A0E0B2E0E8ED6D
S1130310FFEB00E00BBF02C007900D92A435B107BC
S1130320D9F719E1A4E5BBE001C01D92A93EB107CC
S1130330E1F70E942E560C94EB5F0C9400008FB7EB
S1130340F894992708958FBF0895282F9FB7F8949C
S1130350E82FFF27EF55F44F80818F3F81F4E09120
S1130360D719E21771F40BC020936D1504C0FF2751
S1130370EF55F44F20832093D71920E007C025E0E0
S113038005C080916D158F3F91F7EECF892F992786
S11303908FBF822F992708951F931FB7F8948091D8
S11303A0D119882341F48CE00E94A501882319F413
S11303B081E08093D119812F99278FBF1F910895D0
S11303C0382FFA01422F253618F082E090E0089584
S11303D06683872F992785833387218780915F0BD5
S11303E09091600B892B19F085E090E008952FB768
S11303F0F894332785E08093620B1092630BF0939B
S11304005E0BE0935D0B82E090E09093600B809331
S11304105F0B1092650B1092640B445F4093610B69
S11304202FBF8FB7F894282F332780911D118A305E
S113043011F42FBF19C02FBF9FB7F8948091F00C0F
S1130440882311F020E006C081E08093F00C109224
S1130450F10C21E0892F99278FBF222329F00E94D4
S1130460CC0180E090E008951092600B10925F0B35
S113047081E090E00895CF93DF93DB01FB01359693
S11304808183892F9927EB018D8384E6868380916C
S11304906B1590916C15892B19F085E090E029C0BB
S11304A070936C1560936B154483809109098823BC
S11304B019F480E090E01DC08681EB016D817727FF
S11304C0762F662721813327622B732B109209091B
S11304D0242FAD010E94E0019927282F882339F0A9
S11304E081E08093090910926C1510926B15822F8C
S11304F09927DF91CF91089580911D118A3021F4BD
S11305008091C50B843021F081E080935A0B0895CB
S11305108EE00E94A50110925A0B08952FB7F8940B
S113052033278093C600E0ECF0E080818064808310
S11305302FBF0895FC016115710519F481E090E065
S113054008958091E60C9091E70C892B19F085E0D1
S113055090E0089570935B1560935A15F093E70C3F
S1130560E093E60C1092C70B1092C60B81E08093C7
S1130570C80B8091C00080648093C0008091C1004A
S113058080648093C100808121E030E03093C70B08
S11305902093C60B0E948E0280E090E008958FB7EE
S11305A0F894992720916B0B2E7F20936B0B2EE7E9
S11305B02093B60B8FBF61E070E086EB9BE00E9456
S11305C09A0299270895EF920F931F93AE2D99E005
S11305D0899FF0011124E95EFF4E408351836283B9
S11305E073830483158326833783A17080858E7F6C
S11305F08A2B8260808781E00E94A5011F910F9160
S1130600EF9008957FB7F8946091B20020919C0B0D
S113061030919D0B40919E0B50919F0BB99B11C043
S11306208091B3009091B200280F311D411D511DDE
S11306302F5F3F4F4F4F5F4F290F311D411D511DFC
S113064004C0260F311D411D511D872F99278FBFCF
S1130650CA01B9010895882319F08CB5806402C0D9
S11306608CB58F7B8CBD0895882319F08CB5806878
S113067002C08CB58F778CBD08950F931F9380E0D3
S11306800E942B030FB7F8941127229A2398219ADA
S1130690209A8CB580618CBD80E00E9434038CB5B7
S11306A0877F8CBD8CB58B7F8CBD81E00E942B0332
S11306B08DB581608DBD8CB58C7F8CBD0FBF1F91B6
S11306C00F9108950F931F93CF93DF93182F0FB7B4
S11306D0F8948091580B882311F40E943D03802FD5
S11306E099278FBF8FB7F894C82FDD272C2F8091BF
S11306F0580B882361F481E08093580B1093E30C2A
S113070089E00E94A501CFBF80E090E021C0E12FE5
S1130710FF27EF51F34F80818F3F89F4E091FF0869
S1130720E11789F40CC01093FE0804C0FF27EF51B1
S1130730F34F10831093FF0880E090E002C085E03F
S113074090E02FBF05C08091FE088F3F79F7EBCF73
S1130750DF91CF911F910F910895FB01EC58FF4F4A
S113076021E030E002C0220F331F8A95E2F7808136
S1130770822B808308958FB7F8942091E40F3091F1
S1130780E50F4091E60F5091E70FE0918400F0915E
S11307908500B09B08C02F5F3F4F4F4F5F4FE091E4
S11307A08400F091850099278FBFC90177276627B8
S11307B09F0144275527622B732B842B952B089577
S11307C0FC0182819927982F882721813327822B46
S11307D0932B75E0969587957A95E1F781709070E3
S11307E00895AC01EFB7F89420918400309185000E
S11307F0C901841B950B03968617970720F0B9014E
S11308006D5F7F4F02C0640F751F6115710511F490
S113081061E070E0615070407093890060938800DB
S113082082E086BB80916F00826080936F008E2F80
S113083099278FBF0895CF93DF93EC010E94E003C3
S1130840882339F18A8129819927982F882733278A
S1130850822B932B87749C7C81549848D1F48F818C
S11308604E812FB7F89433276091F8087091F908F6
S11308702FBF20E09927982F88275527842B952B65
S11308808617970709F021E081E02827822F99270E
S113089002C080E090E0DF91CF910895FB01EC5815
S11308A0FF4F21E030E002C0220F331F8A95E2F7A8
S11308B08081822399270895EF92FF920F931F93CB
S11308C07C018FB7F89499270091D2121091D3121A
S11308D00F5E1E4F1093D3120093D2120151114098
S11308E08FBF86E00E94A501C801B7010E944D5C3C
S11308F08A5D9E4F1F910F91FF90EF9008951F9373
S1130900982F1FB7F8948091570B823099F58091F6
S1130910FD08891779F58091FB0820E030E08F3FCE
S113092011F421E030E0232BF1F49FEF9093FD08C4
S11309308F3F19F42FEF30E00DC0282F3327F90132
S1130940E154F44F80818093FB088F3F11F490931E
S1130950FC0890832093BC0B81E08093570B82E0CA
S11309600E94A50105C08FEF8093FD081092570BDC
S113097021E001C020E0812F99278FBF90E0213032
S113098009F491E081E09827892F99271F91089510
S11309902F923F924F925F926F927F928F929F928B
S11309A0AF92BF92CF92DF92EF92FF920F931F9379
S11309B0CF93DF93CDB7DEB729970FB6F894DEBF98
S11309C00FBECDBF6FB76983F8942090D60C3090DA
S11309D0D70C4090D80C5090D90C662477248824E6
S11309E0EEE4AE2E73E8B72ECC24DD24EE24FF24EF
S11309F000E010E0222D332D442D552D662D772D4A
S1130A00882D90E00E943D5A2A833B834C835D836A
S1130A106E837F8388879987822E932EA42EB52E8A
S1130A202401350100E20E943B5BA22EB32EC42EAA
S1130A30D52EA301920156954795379527952A0DF2
S1130A403B1D4C1D5D1D57FF05C05F772F5F3F4F5A
S1130A504F4F5F4F2093D60C3093D70C4093D80C54
S1130A605093D90CE9818E2F99278FBFCA01B90100
S1130A7029960FB6F894DEBF0FBECDBFDF91CF919C
S1130A801F910F91FF90EF90DF90CF90BF90AF90A8
S1130A909F908F907F906F905F904F903F902F909A
S1130AA0089520E005C0FC01E20FF11D10822F5FC4
S1130AB02617C9F708950F931F938C0165E10E94CF
S1130AC0510565E1C80145960E9451051F910F919A
S1130AD008957727FC01E60FF71F319761507040A6
S1130AE007C08081B901615070403197882319F49F
S1130AF09B0177FFF6CFC90101960895AC0120E070
S1130B000AC0FA01E20FF11D8081882319F080E008
S1130B1090E008952F5F2617A1F781E090E00895F3
S1130B20EF92FF920F931F93CF93DF937C018B017E
S1130B30483018F080E090E02CC088E0841B30E05E
S1130B4050E0C42FDD27682F77271FC0A52FBB27B0
S1130B50F801EA0FFB1F8081E82FFF27AE0DBF1DB0
S1130B60CF010C2E02C0880F991F0A94E2F7382B8C
S1130B703C93442311F430E007C0062E02C0F595DF
S1130B80E7950A94E2F73E2F5F5F5217F9F6832F39
S1130B909927DF91CF911F910F91FF90EF900895C6
S1130BA0FB015527DC01A40FB51F1197E40FF51FB6
S1130BB031974150504010C09C918081891718F49E
S1130BC081E090E008954150504011973197981773
S1130BD018F48FEF9FEF089557FFEECF80E090E079
S1130BE008952F92CF93DF93DC01EB01FA012223C6
S1130BF019F480E090E012C02A950990219002181F
S1130C000D92222339F02A950990219002080D9221
S1130C100C9401062227221F822F9927DF91CF915E
S1130C202F9008952F923F924F925F926F927F92EE
S1130C308F929F92AF92BF92CF92DF92EF92FF92E8
S1130C400F931F93CF93DF93FC01469546951F9214
S1130C50CF93DF9322243324442455246624772419
S1130C6088249924AA24332794E04A9500E010E0CC
S1130C70099F090EDB01A00DB11DEB01002E011A25
S1130C80011619F020F00C9449060C9411070C94E9
S1130C907F07EE90DE90CE90BE90F990BF9C88279F
S1130CA0000C111C881F200C311C481E30F4531EEC
S1130CB0631E731E831E931EA31ECF9C8827000CE5
S1130CC0111C881F300C411C581E28F4631E731E0F
S1130CD0831E931EA31EDF9C8827000C111C881FF3
S1130CE0400C511C681E20F4731E831E931EA31E09
S1130CF0EF9C8827000C111C881F500C611C781E67
S1130D0018F4831E931EA31EF990BF9C8827000C21
S1130D10111C881F300C411C581E28F4631E731EBE
S1130D20831E931EA31ECF9C8827000C111C881FB2
S1130D30400C511C681E20F4731E831E931EA31EB8
S1130D40DF9C8827000C111C881F500C611C781E26
S1130D5018F4831E931EA31EEF9C8827000C111CFD
S1130D60881F600C711C881E10F4931EA31EF9903A
S1130D70BF9C8827000C111C881F400C511C681E46
S1130D8020F4731E831E931EA31ECF9C8827000C81
S1130D90111C881F500C611C781E18F4831E931EAE
S1130DA0A31EDF9C8827000C111C881F600C711C7B
S1130DB0881E10F4931EA31EEF9C8827000C111CA0
S1130DC0881F700C811C981EA31EF990BF9C882755
S1130DD0000C111C881F500C611C781E18F4831E13
S1130DE0931EA31ECF9C8827000C111C881F600C27
S1130DF0711C881E10F4931EA31EDF9C8827000C10
S1130E00111C881F700C811C981EA31EEF9C882740
S1130E10000C111C881F800C911CA81E13950C94A7
S1130E203E06EE90DE90CE90BE90F990BF9C200CD2
S1130E30311C431E30F4531E631E731E831E931E07
S1130E40A31ECF9C8827000C111C881F300C411C4A
S1130E50581E28F4631E731E831E931EA31EDF9C5C
S1130E608827000C111C881F400C511C681E20F49C
S1130E70731E831E931EA31EEF9C8827000C111C57
S1130E80881F500C611C781E18F4831E931EA31E29
S1130E90F990CF9C400C511C631E20F4731E831EDA
S1130EA0931EA31EDF9C8827000C111C881F500C66
S1130EB0611C781E18F4831E931EA31EEF9C8827C2
S1130EC0000C111C881F600C711C881E10F4931EEA
S1130ED0A31EF990DF9C600C711C18F4831E931EF2
S1130EE0A31EEF9C8827000C111C881F700C811C0A
S1130EF0981EA31EF990EF9C800C911CA31E2192B6
S1130F00319241925192130124016A2C772488244E
S1130F109924AA24041719F003950C943706039511
S1130F20102F141B949F090EDB01A00DB11D199FF6
S1130F30EB01C00DD11D002E011A011619F020F08D
S1130F400C94A6070C946E080C94DC08EE90DE90CA
S1130F50CE90BE90F990BF9C8827000C111C881F6E
S1130F60200C311C481E30F4531E631E731E831E56
S1130F70931EA31ECF9C8827000C111C881F300CC5
S1130F80411C581E28F4631E731E831E931EA31E49
S1130F90DF9C8827000C111C881F400C511C681E04
S1130FA020F4731E831E931EA31EEF9C8827000C3F
S1130FB0111C881F500C611C781E18F4831E931E8C
S1130FC0A31EF990BF9C8827000C111C881F300CAD
S1130FD0411C581E28F4631E731E831E931EA31EF9
S1130FE0CF9C8827000C111C881F400C511C681EC4
S1130FF020F4731E831E931EA31EDF9C8827000CFF
S1131000111C881F500C611C781E18F4831E931E3B
S1131010A31EEF9C8827000C111C881F600C711CF8
S1131020881E10F4931EA31EF990BF9C8827000C01
S1131030111C881F400C511C681E20F4731E831E53
S1131040931EA31ECF9C8827000C111C881F500CD4
S1131050611C781E18F4831E931EA31EDF9C882730
S1131060000C111C881F600C711C881E10F4931E48
S1131070A31EEF9C8827000C111C881F700C811C78
S1131080981EA31EF990BF9C8827000C111C881F72
S1131090500C611C781E18F4831E931EA31ECF9C53
S11310A08827000C111C881F600C711C881E10F40A
S11310B0931EA31EDF9C8827000C111C881F700C34
S11310C0811C981EA31EEF9C8827000C111C881FEE
S11310D0800C911CA81E13950C949B07EE90DE9037
S11310E0CE90BE90F990BF9C200C311C431E30F46E
S11310F0531E631E731E831E931EA31ECF9C88273C
S1131100000C111C881F300C411C581E28F4631E4F
S1131110731E831E931EA31EDF9C8827000C111CC4
S1131120881F400C511C681E20F4731E831E931EDE
S1131130A31EEF9C8827000C111C881F500C611CF7
S1131140781E18F4831E931EA31EF990CF9C400CA6
S1131150511C631E20F4731E831E931EA31EDF9C6A
S11311608827000C111C881F500C611C781E18F471
S1131170831E931EA31EEF9C8827000C111C881F3E
S1131180600C711C881E10F4931EA31EF990DF9C42
S1131190600C711C18F4831E931EA31EEF9C8827F9
S11311A0000C111C881F700C811C981EA31EF99042
S11311B0EF9C800C911CA31E21923192419251927A
S11311C0130124016A2C772488249924AA24042E48
S11311D0000C001519F003950C949007219231929C
S11311E041925192DF91CF911F90DF91CF911F9146
S11311F00F91FF90EF90DF90CF90BF90AF909F90B2
S11312008F907F906F905F904F903F902F900895B4
S11312102F923F924F925F926F927F928F929F9202
S1131220AF92BF92CF92DF92EF92FF920F931F93F0
S1131230CF93DF93FC01822F992783709070322F14
S113124036953695892B11F4832F02C0832F8F5F37
S11312501F92CF93DF9322243324442455246624FD
S1131260772488249924AA24332794E08A9500E0DB
S1131270EA01F88023961881099F090EDB01A00D6D
S1131280B11DEA01EE90DE90CE90BE90BF9C200C82
S1131290311C40F4431E30F4531E631E731E831E20
S11312A0931EA31ECF9C300C411C38F4531E28F40B
S11312B0631E731E831E931EA31EDF9C400C511CD1
S11312C030F4631E20F4731E831E931EA31EEF9C32
S11312D0500C611C28F4731E18F4831E931EA31E65
S11312E0B19E500C611C28F4731E18F4831E931EC7
S11312F0A31EC19E600C711C20F4831E10F4931E67
S1131300A31ED19E700C811C10F4931EA31EE19E9B
S1131310800C911CA31E219231924192519213018F
S113132024016A2C772488249924AA24081719F004
S113133003950C943C092192319241925192DF9190
S1131340CF911F902C5F822F9927DF91CF911F910E
S11313500F91FF90EF90DF90CF90BF90AF909F9050
S11313608F907F906F905F904F903F902F90089553
S11313702F92CF93DF93DC01EB01FA01222319F4BE
S113138080E090E012C02A9509902190020C0D9201
S1131390222339F02A9509902190021C0D920C9475
S11313A0C8092227221F822F9927DF91CF912F90DE
S11313B008952F923F924F925F926F928F929F92D5
S11313C0AF92BF92CF92DF92EF92FF920F931F934F
S11313D0CF93DF93EC01DB01FA01822F65E00E94D9
S11313E0415C782F0F921F92CF93DF9322243324F2
S11313F044245524662488249924AA24BB24CC2478
S11314009927552765E07A95872F880F30E040E0CB
S1131410369F060EA00DB11D1E910E91FE90EE900A
S1131420DE902191D29E200C311C50F4451E40F4D4
S1131430551E651E851E951EA51EB51EC51E951F2F
S1131440E29E300C411C48F4551E38F4651E851E7E
S1131450951EA51EB51EC51E951FF29E400C511C5F
S113146040F4651E30F4851E951EA51EB51EC51ECE
S1131470951F029F500C611C38F4851E28F4951E9C
S1131480A51EB51EC51E951F129F600C811C30F44D
S1131490951E20F4A51EB51EC51E951F2191D29E32
S11314A0300C411C48F4551E38F4651E851E951EEB
S11314B0A51EB51EC51E951FE29E400C511C40F48E
S11314C0651E30F4851E951EA51EB51EC51E951FEE
S11314D0F29E500C611C38F4851E28F4951EA51E3E
S11314E0B51EC51E951F029F600C811C30F4951E0D
S11314F020F4A51EB51EC51E951F129F800C911CBD
S113150028F4A51E18F4B51EC51E951F2191D29E60
S1131510400C511C40F4651E30F4851E951EA51E1A
S1131520B51EC51E951FE29E500C611C38F4851E25
S113153028F4951EA51EB51EC51E951FF29E600CAF
S1131540811C30F4951E20F4A51EB51EC51E951FE2
S1131550029F800C911C28F4A51E18F4B51EC51E0C
S1131560951F129F900CA11C20F4B51E10F4C51EEB
S1131570951F2191D29E500C611C38F4851E28F4CD
S1131580951EA51EB51EC51E951FE29E600C811CEE
S113159030F4951E20F4A51EB51EC51E951FF29E9F
S11315A0800C911C28F4A51E18F4B51EC51E951FA9
S11315B0029F900CA11C20F4B51E10F4C51E951FAB
S11315C0129FA00CB11C10F4C51E951F2191D29E30
S11315D0600C811C30F4951E20F4A51EB51EC51E9A
S11315E0951FE29E800C911C28F4A51E18F4B51ECC
S11315F0C51E951FF29E900CA11C20F4B51E10F47C
S1131600C51E951F029FA00CB11C10F4C51E951F8A
S1131610129FB00CC11C951F431719F043950C94ED
S11316200C0A29923992499259926992140125011E
S11316306C2C892E9924AA24BB24CC249927369F68
S1131640060EE019F109371719F033950C94070ABF
S11316503395E60FF51F769F060EA00DB11D432F9F
S1131660471B1E910E91FE90EE90DE902191D29E2A
S1131670200C311C50F4451E40F4551E651E851E79
S1131680951EA51EB51EC51E951FE29E300C411C5D
S113169048F4551E38F4651E851E951EA51EB51EFC
S11316A0C51E951FF29E400C511C40F4651E30F47B
S11316B0851E951EA51EB51EC51E951F029F500CA6
S11316C0611C38F4851E28F4951EA51EB51EC51E82
S11316D0951F129F600C811C30F4951E20F4A51EEA
S11316E0B51EC51E951F2191D29E300C411C48F495
S11316F0551E38F4651E851E951EA51EB51EC51EF5
S1131700951FE29E400C511C40F4651E30F4851E6A
S1131710951EA51EB51EC51E951FF29E500C611C7C
S113172038F4851E28F4951EA51EB51EC51E951FEA
S1131730029F600C811C30F4951E20F4A51EB51E7A
S1131740C51E951F129F800C911C28F4A51E18F429
S1131750B51EC51E951F2191D29E400C511C40F40C
S1131760651E30F4851E951EA51EB51EC51E951F4B
S1131770E29E500C611C38F4851E28F4951EA51EAB
S1131780B51EC51E951FF29E600C811C30F4951E7B
S113179020F4A51EB51EC51E951F029F800C911C2A
S11317A028F4A51E18F4B51EC51E951F129F900C93
S11317B0A11C18F4B51EC51E951F2191D29E500C74
S11317C0611C38F4851E28F4951EA51EB51EC51E81
S11317D0951FE29E600C811C30F4951E20F4A51E1A
S11317E0B51EC51E951FF29E800C911C28F4A51EE3
S11317F018F4B51EC51E951F029F900CA11C20F461
S1131800B51E10F4C51E951F129FA00CB11C10F438
S1131810C51E951F2191D29E600C811C30F4951E2B
S113182020F4A51EB51EC51E951FE29E800C911CBA
S113183028F4A51E18F4B51EC51E951FF29E900C23
S1131840A11C20F4B51E10F4C51E951F029FA00C08
S1131850B11C10F4C51E951F129FB00CC11C951F1E
S1131860471719F043950C94310B299239924992F8
S113187059926992140125016C2C892E9924AA2469
S1131880BB24CC249927082E031A069EE019F109DB
S1131890060EA00DB11D381719F033950C942F0BBB
S11318A029923992499259926992DF91CF911F906E
S11318B00F90DF91CF911F910F91FF90EF90DF90E8
S11318C0CF90BF90AF909F908F906F905F904F900C
S11318D03F902F9008950F931F93CF93DF93FC01B4
S11318E0822F483018F080E090E032C028E0241BBA
S11318F09927DB01A80FB91F1197E80FF91F31973A
S113190050E0042F1127C22FDD279C0121503040C5
S11319101BC08C91682F7727CB01002E02C09595B0
S113192087950A94E2F7582B5083442311F450E02E
S113193007C00C2E02C0660F771F0A94E2F7562FD9
S1131940215030401197319737FFE3CF852F9927E6
S1131950DF91CF911F910F910895DC01FC0191E07B
S11319608181882319F080E090E008959F5F31968B
S11319709531B1F720E030E08C91813011F421E011
S113198030E0C9010895CF93DF93EC01E22FFF27E4
S1131990319720E030E07727DC01E40FF51F05C024
S11319A0808131978D932F5F3F4F2617370719F0AA
S11319B0E417F507ACF7FE01E20FF31F03C0119221
S11319C02F5F3F4F26173707D0F3DF91CF9108954C
S11319D0282F80E090E0222331F001968830910591
S11319E011F02695F8CF08952F923F924F925F926F
S11319F06F927F928F929F92AF92BF92CF92DF921B
S1131A00EF92FF920F931F93CF93DF93CDB7DEB77F
S1131A10CA54D0400FB6F894DEBF0FBECDBF28968F
S1131A209FAF8EAF28972A967FAF6EAF2A971A0181
S1131A30522E68012B96EFAE2B976E2DC8010E9493
S1131A4069054C01009709F4F7C0F801E80FF91F84
S1131A50319780810E94E80C7C0126968FAE2697F0
S1131A60B7E1AB2EB12CAC0EBD1E682DC5010E9492
S1131A705105652C772408E010E00E191F092596FE
S1131A800FAF2597252D402FB101C5010E94900568
S1131A90F501E60DF71D8083282D402FB6018E0138
S1131AA00F5F1F4FC8010E949005080D191D0150BA
S1131AB01040F801008124960FAF249728968EAD2C
S1131AC09FAD2897009719F0652D0E9451052301B9
S1131AD04818590828962EAC3FAC2897240C351C7E
S1131AE03501640C751C6201C80CD91CAC0CBD1CFE
S1131AF089C024969FAD24979F3F29F4FE01EC0DE5
S1131B00FD1DE7881AC0F50180819927982F882741
S1131B1022915F010894A11CB11C33272496FFADC8
S1131B202497FF5F6F2F7727F1502496FFAF2497F8
S1131B30822B932B0E944D5CE62EFE01EC0DFD1DC5
S1131B403789EE2019F480E090E019C0F30120E019
S1131B50DE011196AD01480D511D0CC080819D918F
S1131B601F92821B882F20E0221FE99E8019211DCD
S1131B701F908193A417B50789F7822F9927FE0137
S1131B80EC0DFD1D381B378B15C0E3948E01095EE7
S1131B901F4F0C0D1D1DF801F08026962FAD2697C2
S1131BA0AE014F5F5F4FB301C3010E94F105F81A04
S1131BB0F801F082FE01EC0DFD1D8789882329F7C9
S1131BC026964FAD2697BE016F5F7F4FC3010E94DB
S1131BD0D00597FFDACF28968EAD9FAD2897892B35
S1131BE011F0F101E0820894410851080894210899
S1131BF031080894610871080894C108D108089450
S1131C00A108B10857FE75CF2B966FAD2B972A9676
S1131C108EAD9FAD2A970E94510526962FAD26972B
S1131C2025964FAD2597BE01695E7F4F2A968EADEE
S1131C309FAD2A970E946B0CC65BDF4F0FB6F894DA
S1131C40DEBF0FBECDBFDF91CF911F910F91FF90EB
S1131C50EF90DF90CF90BF90AF909F908F907F9048
S1131C606F905F904F903F902F9008958F929F9226
S1131C70AF92BF92CF92DF92EF920F931F93CF93C5
S1131C80DF93CDB7DEB7AA970FB6F894DEBF0FBEC9
S1131C90CDBF4C0159011AA619A6202F6E01089434
S1131CA0C11CD11CC6010E94D909202F3327220F41
S1131CB0331FE02E8501A601B40180E090E00E946C
S1131CC0F40CAA960FB6F894DEBF0FBECDBFDF9119
S1131CD0CF911F910F91EF90DF90CF90BF90AF9075
S1131CE09F908F9008950F931F93CF93DF93EC01F0
S1131CF00E946905082F882319F420E030E010C001
S1131D001127C00FD11F219788810E94E80C9801E8
S1131D1003E0220F331F0A95E1F70897280F391FB4
S1131D20C901DF91CF911F910F910895653618F085
S1131D3080E090E008950C9608950F931F93CF933D
S1131D40DF938C01772761507040A0E0B0E0332727
S1131D50EA01FB01E80FF91F06C0899180836150F5
S1131D60704031971196A217B30711F077FFF5CFA2
S1131D70F801E60FF71F04C01082615070403197DC
S1131D8077FFFACFDF91CF911F910F9108950F93B1
S1131D901F93CF93DF938C01EA012223A1F06531D5
S1131DA038F18D8980FD02C082E001C083E0F80132
S1131DB0808324E1AE0164E1C80101960E949D0E76
S1131DC085E190E017C0693298F0FC0184E08193CA
S1131DD024E164E1CF010E949D0E659624E1AE01E9
S1131DE064E1C80145960E949D0E89E290E002C01C
S1131DF08FEF9FEFDF91CF911F910F910895CF93B4
S1131E00DF93EC0165E10E947E05892B11F420E04B
S1131E1009C065E1CE0145960E947E0520E0892B2C
S1131E2009F021E0822F9927DF91CF910895FC01D9
S1131E30892B19F481E090E00895148A158A168A92
S1131E40178A108E118E128E138E158E148E81E0C9
S1131E5093E2A5E4B7E680839183A283B38389E800
S1131E609BEAADECBFEE84839583A683B7838EEFA4
S1131E709CEDAAEBB8E980879187A287B38786E7B0
S1131E8094E5A2E3B0E184879587A687B78780EFBE
S1131E9091EEA2EDB3EC808B918BA28BB38BE25AC3
S1131EA0FF4F119211921182108280E090E0089508
S1131EB02F923F924F925F926F927F928F929F9256
S1131EC0AF92BF92CF92DF92EF92FF920F931F9344
S1131ED0CF93DF93CDB7DEB7CC57D0400FB6F8948D
S1131EE0DEBF0FBECDBFED969FAF8EAFED97FC0169
S1131EF07E96BE016F5F7F4F41E4C42ED12CCC0E81
S1131F00DD1EE080FF24002711271E2D0027FF245B
S1131F10EE2481819927AA27BB27DC0199278827EA
S1131F20E82AF92A0A2B1B2B228133274427552719
S1131F30542F432F322F222783819927AA27BB2787
S1131F40E82AF92A0A2B1B2B2E293F29402B512B37
S1131F50DB012D933D934D935D93BD013496AC15F8
S1131F60BD0579F6ED96AEADBFADED97ED90FD9064
S1131F700D911C911397A296ECAEFDAE0EAF1FAF60
S1131F80A297FD01A480B580C680D780E084F18447
S1131F9002851385EA96ECAEFDAE0EAF1FAFEA974D
S1131FA0E484F58406851785E696ECAEFDAE0EAFA7
S1131FB01FAFE697E088F18802891389A2962CACBA
S1131FC03DAC4EAC5FACA29722961FAE2297EB9627
S1131FD01FAEEB978EC0EB96FFADEB97FF7022968A
S1131FE0FFAF2297EB960FADEB97003108F45FC07B
S1131FF0EF2FFF278F01000F111F000F111F21E08A
S113200030E02C0F3D1F020F131FBF016E5F7F4F87
S11320106F707070660F771F660F771F620F731FE4
S11320203D96DF01AF70B070AA0FBB1FAA0FBB1F94
S1132030A20FB31F3597EF70F070EE0FFF1FEE0F76
S1132040FF1FE20FF31F8D919D910D90BC91A02D68
S1132050208131814281538182279327A427B52788
S1132060F801208131814281538182279327A4275B
S1132070B527FB0120813181428153818227932737
S1132080A427B5279C01AD01220F331F441F551F00
S11320908827B7FD83959927AA27BB27822B932BE3
S11320A0A42BB52BF80180839183A283B383E69696
S11320B0ECACFDAC0EAD1FADE697EA962CAD3DAD94
S11320C04EAD5FADEA97E6962CAF3DAF4EAF5FAF36
S11320D0E697620151011301240126968CAD9DAD52
S11320E0AEADBFAD2697EA968CAF9DAFAEAFBFAF96
S11320F0EA97EA966CAC7DAC8EAC9FACEA976A200A
S11321007B208C209D20D601C50180959095A095BB
S1132110B095E6962CAD3DAD4EAD5FADE69782230E
S11321209323A423B523682A792A8A2A9B2A2296F0
S11321303FAD2297E32FFF27EE0FFF1FEE0FFF1F88
S113214041E050E04C0F5D1FE40FF51F8081918149
S1132150A281B381680E791E8A1E9B1ED201C10121
S11321607BE1B695A795979587957A95D1F7A201C6
S1132170910165E0220F331F441F551F6A95D1F763
S1132180822B932BA42BB52B8E0D9F1DA01FB11F4B
S113219087569648AD47B54A680E791E8A1E9B1E1F
S11321A0D601C5011EE1880F991FAA1FBB1F1A95EE
S11321B0D1F7F2E0D694C794B794A794FA95D1F7DF
S11321C08A299B29AC29BD2926968CAF9DAFAEAF39
S11321D0BFAF2697EB969FADEB979F5FEB969FAFB4
S11321E0EB97943109F0F7CE66966CAE7DAE8EAE69
S11321F09FAE6697EA96ECACFDAC0EAD1FADEA97C8
S1132200E296ECAEFDAE0EAF1FAFE297E6960CADD4
S11322101DAD2EAD3FADE6972E960CAF1DAF2EAF84
S11322203FAF2E97EB966FADEB976F7077278B01CF
S11322300E5F1F4F0F701070000F111F000F111F42
S113224021E030E02C0F3D1F020F131FDB011D9610
S1132250AF70B070AA0FBB1FAA0FBB1FA20FB31F92
S1132260FB013896EF70F070EE0FFF1FEE0FFF1FAB
S1132270E20FF31F8D919D910D90BC91A02D2081B3
S113228031814281538182279327A427B527660F82
S1132290771F660F771F41E050E04C0F5D1F640FFE
S11322A0751FFB012081318142815381822793274D
S11322B0A427B527F80120813181428153818227E7
S11322C09327A427B5277C018D01EE0CFF1C001F6A
S11322D0111F8827B7FD83959927AA27BB27E82ACA
S11322E0F92A0A2B1B2BDB01ED92FD920D931C9313
S11322F013972696ACACBDACCEACDFAC2697A2242B
S1132300B324C424D524E2962CAD3DAD4EAD5FADCF
S1132310E297A226B326C426D52666968CAD9DAD3B
S1132320AEADBFAD66977BE1B695A79597958795BA
S11323307A95D1F766962CAD3DAD4EAD5FAD6697FF
S113234065E0220F331F441F551F6A95D1F7822B76
S1132350932BA42BB52B2E962CAD3DAD4EAD5FAD7E
S11323602E97820F931FA41FB51FA80EB91ECA1E55
S1132370DB1E81EA9BEEA9EDBEE6A80EB91ECA1EBD
S1132380DB1EAE0CBF1CC01ED11E42013101BEE1DA
S1132390660C771C881C991CBA95D1F7A2E0569458
S11323A0479437942794AA95D1F7622873288428F0
S11323B09528EB969FADEB979F5FEB969FAFEB97BE
S11323C0E296ECACFDAC0EAD1FADE2972E96ECAEF2
S11323D0FDAE0EAF1FAF2E9726968CAD9DADAEAD64
S11323E0BFAD269766962CAC3DAC4EAC5FAC669701
S11323F0EB960FADEB970832F9F46A96ACAEBDAE2E
S1132400CEAEDFAE6A97A6962CAE3DAE4EAE5FAEB4
S1132410A697AE968CAF9DAFAEAFBFAFAE97E29628
S11324202CAD3DAD4EAD5FADE29762962CAF3DAFA6
S11324304EAF5FAF629721C06696ACAEBDAECEAE76
S1132440DFAE669726966CAE7DAE8EAE9FAE2697B7
S1132450E2968CAF9DAFAEAFBFAFE297E3CE6A9684
S1132460ACAEBDAECEAEDFAE6A9742013101AE96E0
S11324708CAF9DAFAEAFBFAFAE97EB966FADEB97A2
S11324806F7077278B010E5F1F4F0F701070000F56
S1132490111F000F111F41E050E04C0F5D1F040F8E
S11324A0151FDB011D96AF70B070AA0FBB1FAA0FDA
S11324B0BB1FA40FB51FFB013896EF70F070EE0F31
S11324C0FF1FEE0FFF1FE40FF51F8D919D910D90DF
S11324D0BC91A02D20813181428153818227932791
S11324E0A427B527660F771F660F771FE1E0F0E09A
S11324F0EC0FFD1F6E0F7F1FFB0120813181428194
S1132500538182279327A427B527F801208131819D
S11325104281538182279327A427B5277C018D010B
S1132520EE0CFF1C001F111F8827B7FD8395992708
S1132530AA27BB27E82AF92A0A2B1B2BDB01ED92D9
S1132540FD920D931C931397AE96ACACBDACCEAC80
S1132550DFACAE97A628B728C828D928A6962CADF4
S11325603DAD4EAD5FADA697A222B322C422D522C3
S1132570AE968CAD9DADAEADBFADAE978621972125
S1132580A821B921A82AB92ACA2ADB2A6A968CADBD
S11325909DADAEADBFAD6A977BE1B695A795979516
S11325A087957A95D1F76A962CAD3DAD4EAD5FAD6A
S11325B06A9765E0220F331F441F551F6A95D1F7B0
S11325C0822B932BA42BB52B62962CAD3DAD4EAD37
S11325D05FAD6297820F931FA41FB51FA80EB91E8B
S11325E0CA1EDB1E8CED9CEBABE1BFE8A80EB91E46
S11325F0CA1EDB1EAE0CBF1CC01ED11EA6962CAC80
S11326003DAC4EAC5FACA697AEE1220C331C441C2F
S1132610551CAA95D1F7A696ECACFDAC0EAD1FAD3A
S1132620A697F2E016950795F794E794FA95D1F7F3
S11326302E283F28402A512AEB960FADEB970F5FC7
S1132640EB960FAFEB97AE962CAD3DAD4EAD5FADB7
S1132650AE9762962CAF3DAF4EAF5FAF6297D40199
S1132660C3016A96ECACFDAC0EAD1FAD6A97A6969D
S1132670ECAEFDAE0EAF1FAFA697EB960FADEB978A
S11326800C3309F0ECCE6E96ACAEBDAECEAEDFAE82
S11326906E976A962CAD3DAD4EAD5FAD6A97AA9626
S11326A02CAF3DAF4EAF5FAFAA97AE968CAD9DAD4C
S11326B0AEADBFADAE972A968CAF9DAFAEAFBFAFF8
S11326C02A97EB966FADEB976F7077278B010E5FB0
S11326D01F4F0F701070000F111F000F111FA1E08A
S11326E0B0E0AC0FBD1F0A0F1B1FDB011D96AF70BE
S11326F0B070AA0FBB1FAA0FBB1FE1E0F0E0EC0F04
S1132700FD1FAE0FBF1FFB013896EF70F070EE0F88
S1132710FF1FEE0FFF1F31E0E32EF12CEC0EFD1E28
S1132720EE0DFF1D8D919D910D90BC91A02D2081EA
S113273031814281538182279327A427B527660FCD
S1132740771F660F771F6E0D7F1DFB01208131817E
S11327504281538182279327A427B527F80120813A
S113276031814281538182279327A427B5277C0195
S11327708D01EE0CFF1C001F111F8827B7FD8395E8
S11327809927AA27BB27E82AF92A0A2B1B2BDB0146
S1132790ED92FD920D931C931397AA96ACACBDAC2D
S11327A0CEACDFACAA97A224B324C424D524A62497
S11327B0B724C824D9246E968CAD9DADAEADBFAD03
S11327C06E977BE1B695A795979587957A95D1F7FE
S11327D06E962CAD3DAD4EAD5FAD6E9765E0220FAC
S11327E0331F441F551F6A95D1F7822B932BA42BBB
S11327F0B52B2A962CAD3DAD4EAD5FAD2A97820F19
S1132800931FA41FB51FA80EB91ECA1EDB1E86ED9A
S113281091ECA2E6BAECA80EB91ECA1EDB1EAE0CE1
S1132820BF1CC01ED11EAA962CAD3DAD4EAD5FADF2
S1132830AA979EE1220F331F441F551F9A95D1F783
S1132840AA96ECACFDAC0EAD1FADAA9782E016952E
S11328500795F794E7948A95D1F72E293F29402BC1
S1132860512BEB960FADEB970F5FEB960FAFEB97FA
S11328702A966CAE7DAE8EAE9FAE2A97D201C10170
S11328806E96ECACFDAC0EAD1FAD6E97AA96ECAE99
S1132890FDAE0EAF1FAFAA97EB960FADEB970035C9
S11328A059F06E96ACAEBDAECEAEDFAE6E971901EA
S11328B02A013C014D0105CFA2968CAD9DADAEAD74
S11328C0BFADA2978A0D9B1DAC1DBD1DED96EEAD4F
S11328D0FFADED9780839183A283B3838481958137
S11328E0A681B7816E96ECACFDAC0EAD1FAD6E97B4
S11328F08E0D9F1DA01FB11F84839583A683B7836C
S113290080859185A285B385820F931FA41FB51F6F
S113291080879187A287B38784859585A685B785A7
S1132920820D931DA41DB51D84879587A687B7873F
S113293080899189A289B389860D971DA81DB91D27
S1132940808B918BA28BB38B158E148EC458DF4F62
S11329500FB6F894DEBF0FBECDBFDF91CF911F91AC
S11329600F91FF90EF90DF90CF90BF90AF909F902A
S11329708F907F906F905F904F903F902F9008952D
S1132980AF92BF92CF92DF92EF92FF920F931F9379
S1132990CF93DF93EC016B0179018A012115310595
S11329A04105510519F4AA24BB2473C0892B09F4E9
S11329B06DC0672B09F46AC0C25ADF4F88819981C0
S11329C0CE55D040FE01E05AFF4F892B41F083E001
S11329D090E09183808363E0A62EB12C5AC0A0803E
S11329E0B180A114B104D1F154C08C8D9D8DFC0132
S11329F0EC0FFD1FD6012C91268F01969D8F8C8F95
S1132A008C899D89AE89BF890896A11DB11D8C8BC7
S1132A109D8BAE8BBF8B0097A105B105A1F4888D6A
S1132A20998DAA8DBB8D0196A11DB11D888F998F9B
S1132A30AA8FBB8F0097A105B10529F481E090E02E
S1132A40FA01918380838C8D9D8D8034910519F4D6
S1132A50CE010E94580F0894C11CD11C0894E108AF
S1132A60F10801091109FFEFEF16FFEFFF06FFEF71
S1132A700F07FFEF1F0769F0AE01405A5F4FDA01FD
S1132A808D919C91892B09F4B0CF03C051E0A52E00
S1132A90B12CC501DF91CF911F910F91FF90EF9061
S1132AA0DF90CF90BF90AF900895EF92FF920F9375
S1132AB01F93CF93DF93EC018B01892B09F4D1C0D1
S1132AC0672B09F4CEC0C05ADF4FE880F980C056A6
S1132AD0D040E114F10409F0C7C0C25ADF4F888125
S1132AE09981CE55D040892B09F08FC08C8D9D8D56
S1132AF0FC01EC0FFD1F9C012F5F3F4FC89710F1A5
S1132B0080E8868F3D8F2C8F07C0FC01EC0FFD1FE2
S1132B10168E01969D8F8C8F8C8D9D8D80349105A2
S1132B20A0F3CE010E94580F07C0FC01EC0FFD1F5B
S1132B30168E01969D8F8C8F8C8D9D8D883391057B
S1132B40A0F311C080E8868F3D8F2C8F07C0FC0155
S1132B50EC0FFD1F168E01969D8F8C8F8C8D9D8D95
S1132B6088339105A0F3288D398D4A8D5B8D852F8F
S1132B709927AA27BB27CA5ADF4F8993CA01AA27D4
S1132B80BB278993232F342F452F55272883C855D6
S1132B90D040888DC75ADF4F8883C955D0402C89CF
S1132BA03D894E895F89852F9927AA27BB27C65A55
S1132BB0DF4F8993CA01AA27BB278993232F342F78
S1132BC0452F55272883CC55D0408C89C35ADF4FD5
S1132BD08883CD55D040CE010E94580FFE0180E07D
S1132BE0168E8F5F31968034D9F71C8A1D8A1E8A0F
S1132BF01F8A188E198E1A8E1B8EC25ADF4F81E0DF
S1132C0090E099838883CE55D04040E050E06FEF48
S1132C107FEFE42FE695E695FF27EE0FFF1FEE0FFB
S1132C20FF1FEC0FFD1F9B0123703070A3E0220FE8
S1132C30331FAA95E1F780819181A281B38104C0F9
S1132C40B695A795979587952A95D2F7F80181931C
S1132C508F014F5F5F4F615070404431510521F047
S1132C60D8CF71E0E72EF12CC701DF91CF911F91EE
S1132C700F91FF90EF9008958F929F92AF92BF9221
S1132C80CF92DF92EF92FF920F931F93A22EB32E57
S1132C90FC01E055FF4F2FB7F894332700831183CD
S1132CA0A282B382448355836683778382E08087DC
S1132CB02FBF1F910F91FF90EF90DF90CF90BF90A7
S1132CC0AF909F908F900895CF93DF93FC01DB0129
S1132CD080819C91892780838181EB019981892757
S1132CE0818382819A818927828383819B81892739
S1132CF0838384819C818927848385819D8189271D
S1132D00858386819E818927868387819F81892700
S1132D1087838085988589278087818599858927F8
S1132D20818782859A858927828783859B858927E0
S1132D30838784859C858927848785859D858927C4
S1132D40858786859E858927868787859F858927A8
S1132D508787DF91CF910895FC01208184E499E075
S1132D60DC01A20FB11D2C9120832181DC01A20F73
S1132D70B11D2C9121832281DC01A20FB11D2C9164
S1132D8022832381DC01A20FB11D2C912383248192
S1132D90DC01A20FB11D2C9124832581DC01A20F3B
S1132DA0B11D2C9125832681DC01A20FB11D2C912C
S1132DB026832781DC01A20FB11D2C912783208556
S1132DC0DC01A20FB11D2C9120872185DC01A20F0B
S1132DD0B11D2C9121872285DC01A20FB11D2C91FC
S1132DE022872385DC01A20FB11D2C912387248522
S1132DF0DC01A20FB11D2C9124872585DC01A20FD3
S1132E00B11D2C9125872685DC01A20FB11D2C91C3
S1132E1026872785820F911DDC018C918787089571
S1132E20CF93DF93EB013881E32FFF27EE0FFF1FD2
S1132E30E80FF91FA081B18121E02327E22FFF27AA
S1132E40EE0FFF1FE80FF91F0190F081E02D28839A
S1132E508C918083ED018C818483888580878C8527
S1132E6084878D818183898585838D858187898107
S1132E7085878A8582838E8586838A8182878E81EF
S1132E8086878F8583838B8187838F8183878B85D7
S1132E908787DF91CF910895CF93DF93AC01EB0146
S1132EA020E190E02150E22FFF27DA01AE0FBF1F8F
S1132EB03C91331F3327331FEC0FFD1F8C91880F78
S1132EC0892B8083222311F0932FECCF2F8587E861
S1132ED0389FC001112428272F87DF91CF910895AF
S1132EE0CF93DF93EB013881E32FFF27EE0FFF1F12
S1132EF0E80FF91FA081B18121E02327E22FFF27EA
S1132F00EE0FFF1FE80FF91F0190F081E02D2883D9
S1132F108C918083ED018C818483888580878C8566
S1132F2084878D858183898185838D818187898546
S1132F3085878A8582838E8586838A8182878E812E
S1132F4086878F8183838B8587838F8583878B8116
S1132F508787DF91CF910895FC01208184E59AE071
S1132F60DC01A20FB11D2C9120832181DC01A20F71
S1132F70B11D2C9121832281DC01A20FB11D2C9162
S1132F8022832381DC01A20FB11D2C912383248190
S1132F90DC01A20FB11D2C9124832581DC01A20F39
S1132FA0B11D2C9125832681DC01A20FB11D2C912A
S1132FB026832781DC01A20FB11D2C912783208554
S1132FC0DC01A20FB11D2C9120872185DC01A20F09
S1132FD0B11D2C9121872285DC01A20FB11D2C91FA
S1132FE022872385DC01A20FB11D2C912387248520
S1132FF0DC01A20FB11D2C9124872585DC01A20FD1
S1133000B11D2C9125872685DC01A20FB11D2C91C1
S113301026872785820F911DDC018C91878708956F
S1133020DF92EF92FF920F931F938FB7F894282F9C
S11330303327D22E9091B3008091B20047B39817F2
S113304011F041FF02C02FBF71C08091CA0B8823C9
S1133050E1F10E940203E090940BF090950B009133
S1133060960B1091970B2091751530917615409120
S11330707715509178156E197F09800B910B6217A3
S113308073078407950720F01092CA0B71E01EC0E5
S11330902E0D3F1D401F511F80919C0B90919D0B45
S11330A0A0919E0BB0919F0B281B390B4A0B5B0B15
S11330B0273E31054105510540F4822F223010F09E
S11330C070E005C070E082E002C070E086EE682F18
S11330D061508091B60083FDFCCF8091B2006817E7
S11330E009F46F5F20919C0B30919D0B40919E0BD6
S11330F050919F0BDA01C9010196A11DB11D860FE4
S1133100911DA11DB11D82179307A407B50710F4E3
S1133110622F60958091B60083FDFCCF6093B3006D
S1133120DFBE772319F080E00E94A5011F910F9163
S1133130FF90EF90DF900895AFB7F894BB27E1E0DC
S1133140E093CA0B6093940B7093950B8093960B4A
S11331509093970B209375153093761540937715BC
S113316050937815AFBF0E94101808951F920F92C4
S11331700FB60F9211248F938091B0008093B0000A
S11331808091B60081FDFCCF8F910F900FBE0F9000
S11331901F9018951F920F920FB60F9211240F9340
S11331A01F932F933F934F935F936F937F938F93CB
S11331B09F93AF93BF93CF93DF93EF93FF932EB57A
S11331C0E0911711F0911811309739F08091DE0FCA
S11331D09091DF0FE80FF91F20838091DE0F90910B
S11331E0DF0F01969093DF0F8093DE0F80E00E9443
S11331F03403C091DE0FD091DF0F2091750B309115
S1133200760BC217D30708F042C0009155191091EC
S113321056194091171150911811CE010A9628178A
S1133220390708F4C901DA01AC0FBD1FF801EC0F2E
S1133230FD1F9C012150304015C00115110531F0CE
S113324080818EBD0DB407FEFDCF04C01EBC0DB43D
S113325007FEFDCF8EB54115510509F08C932196DB
S113326011963196C217D30740F381E00E943403CC
S11332700115110531F00C0F1D1FF80180818EBD61
S113328001C01EBCD093DF0FC093DE0F11C010929B
S11332901811109217111092561910925519109274
S11332A0760B1092750B1092DF0F1092DE0F8EB515
S11332B0FF91EF91DF91CF91BF91AF919F918F914A
S11332C07F916F915F914F913F912F911F910F913A
S11332D00F900FBE0F901F90189578941F920F9225
S11332E00FB60F9211240F900FBE0F901F901895D8
S11332F078941F920F920FB60F9211240F900FBE65
S11333000F901F90189578941F920F920FB60F92FA
S113331011242F933F938F939F93AF93BF932FB712
S1133320F89433278091E40F9091E50FA091E60F74
S1133330B091E70F0196A11DB11D8093E40F909306
S1133340E50FA093E60FB093E70F2FBFBF91AF91A6
S11333509F918F913F912F910F900FBE0F901F90CF
S11333601895E6EFF0E06927660FF11DE60FF11DF1
S1133370C895982F802D3196C89590250895982F3B
S11333808091660B882389F5992379F531E0309390
S1133390660B809102098093670B20915B0B822F4F
S11333A0817080939A0B80910709909108099093FA
S11333B0690B8093680B80915C0B80936A0B3227B6
S11333C03170267EE32FFF27EE0FFF1FED5FF64FD0
S11333D0808191819093080980930709232B20937E
S11333E05B0B81E10E94A501089580915B0B80FF36
S11333F002C08B7F01C08D7F80935B0B08950F9378
S11334001F93082F162F8091C50B8130D9F081307E
S113341038F0823009F44AC0833009F028C159C019
S1133420002309F458C110925315109252151092AA
S1133430D512109266151092C90B1092E90F1092D2
S1133440E80F39C1002309F046C18091E80F90913B
S1133450E90F0E94B1199093E90F8093E80F82E07D
S11334608093C50B10936615143409F000C125C16F
S11334708695869503C080915B0B8695817009F0D3
S1133480F6C080915B0B992311F0846001C08260C7
S113349080935B0B80915B0B877E886080935B0BD2
S11334A010925C0B8FEF8093020915C1002309F081
S11334B0DEC06093C90B8091E80F9091E90F0E94E0
S11334C0B1199093E90F8093E80F83E08093C50BC3
S11334D002C18091D5128F3F09F4C9C0002309F4B9
S11334E061C0823008F4C3C0E0915215EE2309F4A0
S11334F0EBC04E2F4150E42FFF27EE5AFA4E828143
S11335009927382F2227442311F4E2E002C0E42F44
S1133510E150FF27EE5AFA4E82819927282B392B46
S11335208091E80F9091E90F2817390709F09FC09F
S113353080E00E94BF193091C90B8091D60F209171
S1133540D70F982F9F5F963008F090E0921771F094
S1133550E82FFF27EA52F04F32838F5F8093D60F14
S1133560863010F01092D60F0E94CC0110925315A1
S11335701092521594E09093C50B1092D5121092AC
S113358066151092C90B1092E90F1092E80F809102
S11335906B0B8D7F80936B0B80915A0B882309F4FE
S11335A09AC084C0823008F44EC0E0915315FF27BE
S11335B0EE5AFA4E8281482F5527342F20915B0B07
S11335C0822F8695869586958370992781309105FB
S11335D019F00297F9F40EC0277E206120935B0B4B
S11335E0442311F485E001C080E080935C0B3093A8
S11335F0020910C080915C0B873760F4E0910709E1
S1133600F0910809E80FF11D408380915C0B8F5FF6
S113361080935C0B80915315E82FFF27EE5AFA4EE6
S113362062818F5F80935315833010F0109253158D
S113363077278091E80F9091E90F0E94B119909338
S1133640E90F8093E80F80915215E82FFF27EE5A77
S1133650FA4E12838F5F80935215833010F01092CC
S113366052158091D5128F5F8093D51234C0109279
S113367053151092521514E01093C50B1092D512E5
S1133680109266151092C90B1092E90F1092E80F70
S113369080916B0B8D7F80936B0B81E00E94BF192F
S11336A080915A0B882329F01093C50B0E947C0249
S11336B012C0002381F081E009CF80915B0B982F29
S11336C0917080FDD5CED7CE809156159927382F8D
S11336D0222742E01CCF1F910F9108951F920F9251
S11336E00FB60F9211242F933F934F935F936F93D1
S11336F07F938F939F93AF93BF93EF93FF938091A7
S1133700C00087FF42C06091C600E091EA0FF091CB
S1133710EB0F309719F18091CF199091D019E80FE0
S1133720F91F608301969093D0198093CF1920914B
S1133730DC193091DD198217930738F11092EB0FE1
S11337401092EA0F80911C118330F9F08091C1002E
S11337508F778093C10010921C1117C06E3719F433
S113376060E081E010C080916B0B6D3721F48260C2
S113377080936B0B0AC081FF05C08D7F80936B0B18
S113378080E2682780E00E94FF19FF91EF91BF91CA
S1133790AF919F918F917F916F915F914F913F91E5
S11337A02F910F900FBE0F901F901895982F8D5743
S11337B0823068F480916B0B816080936B0B80E2A4
S11337C089278093D4128DE78093B60B02C090931F
S11337D0B60B61E070E086EB9BE00E949A029927A9
S11337E0089578941F920F920FB60F921124FF92AE
S11337F00F931F932F933F934F935F936F937F93F5
S11338008F939F93AF93BF93CF93DF93EF93FF93E4
S11338102091C60B3091C70B80915A1590915B157E
S11338202817390780F4E091E60CF091E70CE20FD9
S1133830F31F80812F5F3F4F3093C70B2093C60B3C
S11338400E948E02D1C01092E70C1092E60C1092E6
S1133850C80B8091C1008F7B8093C100FFB6F894A0
S113386080916B0B80FF0EC08E7F80936B0B8091D9
S1133870D4128093B60B61E070E086EB9BE00E946B
S11338809A02AFC080911D11843009F48CC0853038
S113389040F4823021F18330B8F5813009F09CC0C6
S11338A00DC0863009F48DC0863008F483C087309B
S11338B009F48EC0883009F08FC091C08091E20C69
S11338C00E94D61B082F83E080931D116091E20CA7
S11338D08091DA199091DB190E94B11910C080917E
S11338E073150E94D61B082F83E080931D116091ED
S11338F073158091DA199091DB190E94B119909394
S1133900DB198093DA1966C0E0911610FF27EE0FD9
S1133910FF1FE151F34F80810E94D61B082F1091A5
S11339201610C12FDD27FE01EE0FFF1FE151F34FEB
S113393060818091DA199091DB190E94B1199093FA
S1133940DB198093DA192091E00C2F5F2093E00CAF
S1133950113039F58091620BE0915D0BF0915E0BB3
S1133960E80FF11DE0818F5F8093620B9091610BF2
S1133970981730F482E08093F00C40E050E002C0ED
S11339804E2F5527DE01AA0FBB1FFD01E251F34F55
S11339908081823031F02F3F21F0A151B34F4C93FD
S11339A019C084E012C08091DA190E94D61B082F36
S11339B085E00BC08091DB190E94D61B082F86E09E
S11339C004C00E94CF02082F87E080931D1102C01B
S11339D088E003C0002329F089E080931D110E9430
S11339E0CC018F2D99278FBFFF91EF91DF91CF915C
S11339F0BF91AF919F918F917F916F915F914F9103
S1133A003F912F911F910F91FF900F900FBE0F9038
S1133A101F9018951F920F920FB60F9211248F9337
S1133A208091C80087FF02C08091CE008F910F90D3
S1133A300FBE0F901F90189578941F920F920FB697
S1133A400F9211240F900FBE0F901F901895789429
S1133A501F920F920FB60F9211240F900FBE0F906A
S1133A601F90189578941F920F920FB60F921124FD
S1133A700F900FBE0F901F90189578941F920F927D
S1133A800FB60F9211240F900FBE0F901F90189530
S1133A9078941F920F920FB60F9211248F939F93D5
S1133AA080919600909197009F918F910F900FBEF7
S1133AB00F901F90189578941F920F920FB60F9243
S1133AC011242F933F938F939F932FB7F894332709
S1133AD08091DB0C9091DC0C01969093DC0C80932C
S1133AE0DB0C2FBF9F918F913F912F910F900FBEB1
S1133AF00F901F9018959F92AF92BF92CF92DF9232
S1133B00EF92FF920F931F93CF93DF93CDB7DEB75E
S1133B1065970FB6F894DEBF0FBECDBF5C01CE0132
S1133B2006969B838A835D834C831982DC01FB01A7
S1133B3080E101900D928150E1F7E981FF27EE0FBA
S1133B40FF1FEC0FFD1FB501828193810E94641653
S1133B5010E1C12ED12CCA0CDB1CB1E09B2EE981F3
S1133B60FF27EE0FFF1F7E010894E11CF11CEE0DF0
S1133B70FF1D818192810E94AC168E010E5F1F4F42
S1133B80B701C8010E9410179981E92FFF27EE0F92
S1133B90FF1FE00FF11F4081518181E08927E82F49
S1133BA0FF27EE0FFF1FE00FF11F20813181898372
S1133BB07A01D90100E0F70160817181528193811A
S1133BC0062E07FA000C332730F931953B71302566
S1133BD0072E07FA000C222720F921952B712025A6
S1133BE0052E07FA000C442740F941954B714025F6
S1133BF0092E07FA000C112710F911951B711025D5
S1133C00E92FE527832F822787278E278C93242764
S1133C1026272E27FD012183872F81274627492721
S1133C2084278283362737273127532753830C5F12
S1133C3084E090E0E80EF91E1496003109F0BBCF41
S1133C40E981FF27EE0FFF1F8E010F5F1F4FE00F6B
S1133C50F11FB601818192810E9464169394E0E180
S1133C60F0E0CE0EDF1EFAE09F1609F078CFE9816E
S1133C70FF27EE0FFF1FE00FF11F818192810E9449
S1133C80AC16B801CE0102960E94101780EA90E0AB
S1133C90A80EB91EE981FF27EE0FFF1FE00FF11FE9
S1133CA0B501818192810E94641680E090E065965E
S1133CB00FB6F894DEBF0FBECDBFDF91CF911F9139
S1133CC00F91FF90EF90DF90CF90BF90AF909F90B7
S1133CD008952F923F924F925F926F927F928F92AC
S1133CE09F92AF92BF92CF92DF92EF92FF920F9387
S1133CF01F93CF93DF93CDB7DEB7CA55D1400FB62C
S1133D00F894DEBF0FBECDBF1C012B014A0159013F
S1133D10380121343105DCF08E0107501F4FC801F2
S1133D200E94170F9501442737FD4095542FB40185
S1133D30C8010E94C0147E010894E11CF11CB70163
S1133D40C8010E945515470124E1A22EB12C8E0111
S1133D500B5E1F4FA501B401C8010E94F95C91E4F8
S1133D60E92EF12CEA18FB08A70160E070E0C80115
S1133D708A0D9B1D0E94025D86E5C82ED12CCC0EB7
S1133D80DD1EA501B401C6010E94F95CA70160E033
S1133D9070E0C6018A0D9B1D0E94025DF801D601E8
S1133DA046E39CE558019E012B5A3F4F80818427AE
S1133DB081938C9189278D93E217F307B9F78E01CC
S1133DC009561F4FC8010E94170F20E430E040E05D
S1133DD050E0B501C8010E94C0149201442737FD88
S1133DE04095542FB101C8010E94C014B301C80109
S1133DF00E945515C8010E94170F20E430E040E0EE
S1133E0050E0BE016A5A7F4FC8010E94C01424E1E9
S1133E1030E040E050E0B301C8010E94C014B30197
S1133E20C8010E945515C65ADE4F0FB6F894DEBF7E
S1133E300FBECDBFDF91CF911F910F91FF90EF90F7
S1133E40DF90CF90BF90AF909F908F907F906F90B6
S1133E505F904F903F902F9008958F929F92AF92D2
S1133E60BF92CF92DF92EF92FF920F931F93CF9363
S1133E70DF93CDB7DEB7CE58D0400FB6F894DEBF8F
S1133E800FBECDBF9C01DE015596FA0184E101907D
S1133E900D928150E1F783E0FE01B99611928A9563
S1133EA0E9F759016B0131E0832E912C35C08CA6C2
S1133EB08E01035D1F4FC8010E94170F28E130E0F7
S1133EC040E050E0BE016B5E7F4FC8010E94C01409
S1133ED07E010894E11CF11CB701C8010E9455152C
S1133EE084E1C816D10444F0F501D70184E10D90B2
S1133EF00192815031F0FBCFA601B701C5010E94A8
S1133F00F95C0894811C911C8CEE9FEFC80ED91E9D
S1133F1084E190E0A80EB91E1C141D0444F2C2579B
S1133F20DF4F0FB6F894DEBF0FBECDBFDF91CF9148
S1133F301F910F91FF90EF90DF90CF90BF90AF90C3
S1133F409F908F9008952F923F924F925F926F921D
S1133F507F928F929F92AF92BF92CF92DF92EF9215
S1133F60FF920F931F93CF93DF93CDB7DEB7C8555E
S1133F70D0400FB6F894DEBF0FBECDBF69969FAF99
S1133F808EAF69976B014A01722E28011E2D76E1CE
S1133F90E72EF12CEC0EFD1E812F992767969FAF1B
S1133FA08EAF6797AC01B601C7010E94F95C6BE262
S1133FB0A62EB12CAC0EBD1E012F9201A601B70195
S1133FC0C5010E94360E9201A601B501C7018A9669
S1133FD00E94360E612FCE0101960E94510581E0A8
S1133FE08983672DC4010E946905682E99271C01E5
S1133FF00894210831086401C80ED91E0894C10828
S1134000D1088824992447C0F601A080821593051D
S113401019F058E0B52E0DC048E0B42E04C0AA0C27
S1134020AA0CFEEFBF0E8A2D829586958695837025
S1134030B1F3772428C0012F92017E010894E11C7A
S1134040F11CA701B701C7010E94360E9201A70116
S1134050B701C7010E94360E8A2D829586958695F2
S1134060837069F045E1849FA00111244C0F5D1F0A
S11340704F5F5F4F9201B701C7010E94360E82E085
S1134080780EAA0CAA0C7B14B0F20894811C911C23
S11340900894C108D108862D992788199909019790
S11340A097FFB2CF67964EAD5FAD6797BE016F5F66
S11340B07F4F69968EAD9FAD69970E94F95CC85A8F
S11340C0DF4F0FB6F894DEBF0FBECDBFDF91CF91A7
S11340D01F910F91FF90EF90DF90CF90BF90AF9022
S11340E09F908F907F906F905F904F903F902F9014
S11340F008952F923F924F925F926F927F928F9288
S11341009F92BF92CF92DF92EF92FF920F931F93F1
S1134110CF93DF93CDB7DEB7C455D0400FB6F89434
S1134120DEBF0FBECDBF1C017B01BA013901B02E29
S1134130402E5524A201CE0101960E94F95CA201F1
S1134140B301CE0146960E94F95CA201B701CE01EB
S11341508B960E94F95C602FCE01805C9F4F0E9479
S113416051059AC0BB2021F0898180FD11C0A6C0F1
S113417020E041E0B801C8010E946B0CCE018B968F
S11341802B2D41E0BC0186C08E01055D1F4F10C080
S11341908E8980FD18C02B2D41E0B701C7010E9414
S11341A06B0C8E01005C1F4FF801808180FF06C0FC
S11341B02B2DA301B801C8010E94B8092B2D41E0A1
S11341C0B801C80167C0ABE28A2E912C8C0E9D1EEB
S11341D0F0E4CF2ED12CCC0EDD1E121613066CF596
S11341E02B2DA701B801C8010E94F1052B2D41E038
S11341F0B801C8010E946B0C4B2DB601C4010E948A
S1134200D00597FF06C02B2DA301B401C4010E9461
S1134210B8092B2DA601B401C4010E94F1058BA598
S113422080FF06C02B2DA301B401C4010E94B8096C
S11342302B2D41E0B401C4012DC02B2DA801B701E1
S1134240C7010E94F1052B2D41E0B701C7010E946F
S11342506B0C4B2DB401C6010E94D00597FF06C01C
S11342602B2DA301B601C6010E94B8092B2DA40170
S1134270B601C6010E94F105F601808180FF06C0E7
S11342802B2DA301B601C6010E94B8092B2D41E0D4
S1134290B601C6010E946B0CE6E1EE2EF12CEC0E89
S11342A0FD1E4B2DB7018E010F5F1F4FC8010E94E9
S11342B0D0059C01892B09F055CF0AC02B2D41E074
S11342C0B801C8010E946B0C8BA580FF57CF5CCF4F
S11342D0A201BE01655D7F4FC1010E94F95CCC5A09
S11342E0DF4F0FB6F894DEBF0FBECDBFDF91CF9185
S11342F01F910F91FF90EF90DF90CF90BF909F9010
S11343008F907F906F905F904F903F902F90089583
S1134310DC01FB0125E101900D922150E1F7DC0164
S11343205596FB01759685E101900D928150E1F758
S113433008954F925F926F927F928F929F92AF9265
S1134340BF92CF92DF92EF92FF920F931F93CF937E
S1134350DF93CDB7DEB7C455D0400FB6F894DEBFB7
S11343600FBECDBF2C0149013801AE2C1AA619A6E7
S1134370FE01EC5AFF4F1082FE01ED5AFF4F1082EE
S113438024E1CE0101960E94D90908E2B02E2BC087
S11343904B2D55271BE2E12EF12CEC0EFD1E60E0A7
S11343A070E0C7010E94025D0B2D0451202FA30170
S11343B0B601C7010E940809B82E1127A80160E0C0
S11343C070E0C6010E94025D84E18B1510F025E1C6
S11343D002C02B2D2F5FCE010196AC01BE01655D9D
S11343E07F4F0E94B809B5E1CB2ED12CCC0EDD1E37
S11343F064E1C6010E947E05892B51F206C02A2D74
S1134400A401B801C8010E94F1054A2DB4018E012E
S11344100F5F1F4FC8010E94D005181619067CF3C0
S11344204A2D5527B801C2010E94F95CCC5ADF4FCE
S11344300FB6F894DEBF0FBECDBFDF91CF911F91B1
S11344400F91FF90EF90DF90CF90BF90AF909F902F
S11344508F907F906F905F904F900895AF92BF922E
S1134460CF92DF92EF92FF920F93CF93DF93CDB76A
S1134470DEB765970FB6F894DEBF0FBECDBF5C0103
S11344807901202F6E010894C11CD11CC6010E9421
S1134490B809882339F4402FB701C6010E94D0051A
S11344A097FD07C0202FA701B601C5010E94F105A1
S11344B006C0402F5527B601C5010E94F95C6596D8
S11344C00FB6F894DEBF0FBECDBFDF91CF910F9131
S11344D0FF90EF90DF90CF90BF90AF900895AF9290
S11344E0BF92CF92DF92EF92FF920F93CF93DF931D
S11344F0CDB7DEB765970FB6F894DEBF0FBECDBF5C
S11345005C016901202F7E010894E11CF11CC701A4
S11345100E94F105882339F0202FA601B701C501B7
S11345200E94B80906C0402F5527B701C5010E9453
S1134530F95C65960FB6F894DEBF0FBECDBFDF9170
S1134540CF910F91FF90EF90DF90CF90BF90AF90FD
S113455008954F925F926F927F928F929F92AF9243
S1134560BF92CF92DF92EF92FF920F931F93CF935C
S1134570DF93CDB7DEB7C455D0400FB6F894DEBF95
S11345800FBECDBF2C014A013901A02E1AA619A6CF
S1134590FE01EC5AFF4F1082FE01ED5AFF4F1082CC
S11345A044E1CE0101960E94120628E2B22E2BC0ED
S11345B04B2D55279BE2E92EF12CEC0EFD1E60E0FD
S11345C070E0C7010E94025D0B2D0451202FA3014E
S11345D0B601C7010E940809B82E1127A80160E09E
S11345E070E0C6010E94025D84E18B1510F025E1A4
S11345F002C02B2D2F5FCE010196AC01BE01655D7B
S11346007F4F0E94B80985E1C82ED12CCC0EDD1E47
S113461064E1C6010E947E05892B51F206C02A2D51
S1134620A401B801C8010E94F1054A2DB4018E010C
S11346300F5F1F4FC8010E94D005181619067CF39E
S11346404A2D5527B801C2010E94F95CCC5ADF4FAC
S11346500FB6F894DEBF0FBECDBFDF91CF911F918F
S11346600F91FF90EF90DF90CF90BF90AF909F900D
S11346708F907F906F905F904F900895BF92CF92EC
S1134680DF92EF92FF920F931F93CF93DF93CDB7F7
S1134690DEB724970FB6F894DEBF0FBECDBF7C0102
S11346A08C0100551F4FF80110821182128213826F
S11346B014821582168217821086603119F086E002
S11346C090E08DC0DC01FA0180E101900D928150EF
S11346D0E1F7B701605F7F4FF70184859585A68573
S11346E0B78589839A83AB83BC83E4E0BE2E50E113
S11346F0C52ED12C1AC02B2D33276901CC0CDD1CFF
S1134700CC0CDD1CB7016C0D7D1DFB01B291A29197
S113471092918291BF016C5F7F4F89839A83AB83AF
S1134720BC8323703070232BD1F59E012F5F3F4F44
S11347304981F9018181AB819C81E82FFF27EC5BE2
S1134740F64F80818983BB27AC5BB64F8C91F9010E
S11347508183E92FFF27EC5BF64F80818B83E42F65
S1134760FF27EC5BF64F80818C83EB2DE695E69575
S1134770FF27EE0FFF1FEE0FFF1FE85EF64F898144
S11347809A81AB81BC81208131814281538182270E
S11347909327A427B52789839A83AB83BC83CE0C44
S11347A0DF1C60517040FB0180819181A281B38143
S11347B029813A814B815C8182279327A427B527DD
S11347C0F60180839183A283B383B394FBE2FB1548
S11347D008F091CF81E0F801808780E090E0249692
S11347E00FB6F894DEBF0FBECDBFDF91CF911F91FE
S11347F00F91FF90EF90DF90CF90BF9008952F928C
S11348003F924F925F926F927F928F929F92AF925C
S1134810BF92CF92DF92EF92FF920F931F93CF93A9
S1134820DF93CDB7DEB7C651D1400FB6F894DEBFE3
S11348300FBECDBF1C018B01141615060CF009C365
S1134840DB01BC91CC5EDE4FB883C451D140BB23A5
S113485049F465E10E94510565E1C10145960E9454
S11348605105F7C2CC5EDE4FE881C451D140E4303B
S1134870B9F4493251050CF4ECC20F5F1F4F24E127
S1134880A80165E10E94C30C0C5E1F4F24E1A8013E
S113489065E1C10145960E94C30C89E290E0DBC248
S11348A0CC5EDE4F8881C451D1408250823008F002
S11348B0D0C2453151050CF4CCC20F5F1F4F24E127
S11348C0A80165E1C1010E94C30C05E125E53CE0B6
S11348D040E45CE0B1016E010894C11CD11CC60126
S11348E00E94A922E5E1EE2E05E51CE020E43CE06F
S11348F0A101B601C6010E94992176E1472E512CEF
S11349004C0E5D1E20E43CE0A1016AE67CE0C2019D
S11349100E94992105E120E43CE0A601B201C20114
S11349200E942E2220E43CE04FE75CE0B201C20189
S11349300E942E22C1014596CE5EDE4F9983888364
S1134940C251D140DE019B96CB5EDE4FB983A88372
S1134950C551D14065E1962EE92D1D92EA95E9F7FE
S113496084E08BA755E5C52ED12CCC0EDD1E40E48A
S1134970642E712C6C0E7D1E8E01055D1F4F25E18A
S113498040E45CE0B601C3010E94F40CD6018C91B2
S11349908330B1F481E08BA725E1A801B301C30101
S11349A00E94B80900E41CE025E1A301B201CE5E37
S11349B0DE4F88819981C251D1400E94A31F25C234
S11349C038E0A32EABA625E1E22E8E01055D1F4F34
S11349D025E140E45CE0B601C3010E94F40CF60159
S11349E08081853009F067C094E9892E912C8C0E62
S11349F09D1E25E141E0B201C4010E94900545E1FC
S1134A0060E47CE0C4010E94D00597FD07C025E165
S1134A1040E45CE0B401C4010E94F1058AE6A82EDA
S1134A20B12CAC0EBD1E05E1E02E00E41CE025E136
S1134A30A301B401C5010E94A31F1FE7C12ED12CFD
S1134A40CC0EDD1E05E125E53CE040E45CE0B5016B
S1134A50C6010E94A92205E51CE020E43CE0A40173
S1134A60B601C6010E94992181E08BA705E120E4EB
S1134A703CE0AE01455D5F4FB601C6010E946F2266
S1134A8005E51CE020E43CE0A501B201CE5EDE4F6A
S1134A9088819981C251D1400E94992120E43CE04F
S1134AA0A601CE5EDE4F68817981C251D140CB012F
S1134AB00E949921AAC1ABA6B5E1EB2E8E01055D3A
S1134AC01F4F25E140E45CE0B601C3010E94F40CF1
S1134AD0D6016C91613009F098C1FE01E158FF4F95
S1134AE0DF011D929A94E9F760836BA7D301E0E498
S1134AF0FCE085E101900D928150E1F78E01005CAC
S1134B001F4F25E1AE01455D5F4FB801C8010E940A
S1134B10B80925E141E0B801C8010E946B0C6AC1E3
S1134B20FE01E755FF4F85E1DF011D928A95E9F704
S1134B3082E08083DE01A254BF4FF80185E1019039
S1134B400D928150E1F7FE01ED52FF4F95E1DF0137
S1134B50892F1D928A95E9F781E08083FE01E8514F
S1134B60FF4FDF011D929A95E9F781838E01005C66
S1134B701F4F65E1C8010E94730E9C012150304013
S1134B8037FDC2C0C90168E070E00E94615C2B017E
S1134B90400E511EC90168E070E00E94615C21E092
S1134BA030E002C0220F331F8A95E2F7322EA8EEBE
S1134BB06A2E712C6C0E7D1EF3EDCF2ED12CCC0EF3
S1134BC0DD1EE5E1EE2E05E51CE020E43CE0A3015A
S1134BD0B601C6010E949921F2018081832109F462
S1134BE045C020E43CE0AE014A5E5F4FB601C3011C
S1134BF00E9499217DEF872E912C8C0E9D1E20E41E
S1134C003CE0A601BE0161587F4FC4010E94992176
S1134C106EEBA62EB12CAC0EBD1E59EAC52ED12CBE
S1134C20CC0EDD1E20E43CE0A501B601C6010E94C5
S1134C30992105E120E43CE0A401B601C6010E94EB
S1134C406F2225E53CE040E45CE0B501C5010E942B
S1134C50A92220E43CE0A301B501C5010E946F2212
S1134C6020E43CE0A301B501C5014BC0D301F6012A
S1134C7085E101900D928150E1F749EAC42ED12CCF
S1134C80CC0EDD1E3EEBA32EB12CAC0EBD1E25E1D9
S1134C90E22E05E51CE020E43CE0A601B501C501D7
S1134CA00E94992193ED692E712C6C0E7D1E8DEF5F
S1134CB0882E912C8C0E9D1E20E43CE0A301BE01A5
S1134CC061587F4FC4010E94992105E120E43CE032
S1134CD0A401B501C5010E946F2225E53CE040E432
S1134CE05CE0B601C6010E94A92220E43CE0A301D5
S1134CF0B601C6010E946F2220E43CE0A301B60184
S1134D00C6010E946F2253CFDE01A659BF4FFE0198
S1134D10E755FF4F85E101900D928150E1F7DE01E7
S1134D20AC56BF4FFE01ED52FF4F85E101900D924D
S1134D308150E1F7BAE6CB2ED12CCC0EDD1ED60184
S1134D408C9180FF07C025E140E45CE0B601C60118
S1134D500E94B80925E141E0B601C6010E946B0C2E
S1134D60A5E5EA2EF12CEC0EFD1E05E125E53CE05F
S1134D7040E45CE0B601C7010E94A92245E1BE01FE
S1134D806A5E7F4FC7010E94D005892B69F4CE5E0D
S1134D90DE4FE881F981C251D140D60185E10D9001
S1134DA00192815091F1FBCFFBE2CF2ED12CCC0E9E
S1134DB0DD1E8E010C561F4F45E1B601C8010E944D
S1134DC0D0051816190674F425E1A601B801C80126
S1134DD00E94B80945E160E47CE0C8010E94D00566
S1134DE097FD13C0CE0181589F4F25E1A601BC0158
S1134DF00E94B8098E0101581F4F45E160E47CE030
S1134E00C8010E94D00597FD8BCE20E0CC5EDE4F1A
S1134E10B881C451D140B23009F421E081E028279F
S1134E203327F101858999278170907028173907F4
S1134E3069F005E120E43CE0CE5EDE4F4881598113
S1134E40C251D140B901CA010E946F2285E190E0AC
S1134E5002C08FEF9FEFCA5EDE4F0FB6F894DEBF3D
S1134E600FBECDBFDF91CF911F910F91FF90EF90B7
S1134E70DF90CF90BF90AF909F908F907F906F9076
S1134E805F904F903F902F9008951F920F920FB60E
S1134E900F9211242F933F934F935F936F937F93BC
S1134EA08F939F93AF93BF93EF93FF938091B00041
S1134EB08093B0008091B60081FDFCCF8091B30057
S1134EC099270196AA27BB2720919C0B30919D0B13
S1134ED040919E0B50919F0B280F391F4A1F5B1F57
S1134EE020939C0B30939D0B40939E0B50939F0BF0
S1134EF078940E941018FF91EF91BF91AF919F9108
S1134F008F917F916F915F914F913F912F910F906E
S1134F100FBE0F901F90189521E02093ED0C209365
S1134F2019112091840030918500BC01C9010E94AF
S1134F30F10308958FB7F894282F3327922F809187
S1134F400009882331F48091580B823011F42FBF6B
S1134F5013C09FBF8FB7F894282F33278091580B25
S1134F60882369F482E08093580B109200092FBFC4
S1134F700E943D03209A289A81E090E008952FBF73
S1134F8080E00E94620380E090E008950F931F93F5
S1134F90982F1FB7F8948091580B823099F580911F
S1134FA00009891779F58091FE0820E030E08F3FF1
S1134FB011F421E030E0232BF1F49FEF90930009EA
S1134FC08F3F19F42FEF30E00DC0282F3327F9015C
S1134FD0EF51F34F80818093FE088F3F11F490933B
S1134FE0FF0890832093E30C81E08093580B89E0C1
S1134FF00E94A50105C08FEF809300091092580B01
S113500001E001C000E0812F99278FBF1FB7F894FA
S11350108091580B882311F40E942B03812F992728
S11350208FBF90E0013009F491E081E09827892F47
S113503099271F910F910895EF92FF920F931F9359
S1135040CF93DF93E4E6F9E1C091700BD091710B3B
S1135050CC31D10510F0CCE1D0E08CE1DF011D9220
S11350608A95E9F72091700B3091710B80916C0B4C
S113507090916D0B00E010E07F0113C0FC01E55935
S1135080F24FE0812115310539F0019664EF71E0AA
S11350900E944D5C21503040D701ED937D010F5F9C
S11350A01F4F0C171D0751F73093710B2093700B92
S11350B090936D0B80936C0B4CE168E579E18FEF75
S11350C09FEF0E943B02882319F084E10E94A5010E
S11350D0DF91CF911F910F91FF90EF9008958FB7BB
S11350E0F894282F33278091720B813021F42FBF3D
S11350F080E090E0089540E08091700B9091710BF6
S1135100892B09F441E0442321F02FBF81E090E092
S1135110089581E08093720B2FBF0E941C2880E0C9
S113512090E008951092560B8823A1F47F936F9317
S113513080E092E09F938F930E94095D0E946F2804
S113514081E08093550B1092540B0F900F900F90A9
S11351500F90089587E192E00E94275D0E946F28D6
S11351600895EF92FF920F931F93CF93DF937B01E8
S1135170C0E0D0E08C011EC0CE0187709070892BF6
S113518021F48AE090E00E94205D0E946F28F801DB
S113519081918F0199279F938F9383E292E09F934C
S11351A08F930E94095D0E946F2821960F900F90A3
S11351B00F900F90CE15DF05F9F68AE090E00E947B
S11351C0205D0E946F28DF91CF911F910F91FF9076
S11351D0EF900895662361F48091700B9091710BA8
S11351E0892B19F00E941C2808951092720B0895BF
S11351F084E10E94A5010895EF92FF920F931F93FB
S1135200CF93DF93182F7B01042FE82FFF27EE0F96
S1135210FF1FE559FA4E1182108210920909A091DC
S11352206B15B0916C15109721F08091DF0C80FF05
S11352300EC081E08093090903C083E10E94A501A7
S11352401123C9F4602FC7010E94EA2814C0FD018C
S1135250359624813327ED016D817727762F6627D4
S113526081819927682B792BAD0186810E94E00109
S1135270882331F3E2CFDF91CF911F910F91FF90FB
S1135280EF9008951F93CF93DF93182F8091720BA3
S1135290882361F48091700B9091710B8A3F910582
S11352A028F081E08093720B0E941C288FB7F89439
S11352B0C82FDD272091700B3091710B81E0243FC2
S11352C03807D8F480916E0B90916F0BFC01E5596F
S11352D0F24F1083019664EF71E00E944D5C90934D
S11352E06F0B80936E0B2F5F3F4F3093710B2093A6
S11352F0700BCFBF80E090E003C0CFBF8FEF9FEF74
S1135300DF91CF911F9108958091C30B823031F4C6
S113531081E08093C30B84E00E94A50108958093EB
S11353207915882311F484E001C081E08093C30BD4
S113533084E00E94A50108954F925F926F927F923C
S11353408F929F92AF92BF92CF92DF92EF92FF9291
S11353500F931F93CF93DF93EC018091740B8823F9
S113536009F08DC180915719853009F088C10E94D8
S11353709A27882309F483C180915715882309F05B
S11353807EC1BE0182E00E944E04882311F490E0A5
S113539006C0CB58DF4F9981C557D0409F7080918C
S11353A06A0D981781F090936A0D289885EC8EBD4C
S11353B00DB407FEFDCF8EB590689EBD0DB407FEFB
S11353C0FDCF8EB5289A4E010894811C911CF401DE
S11353D08181298140E09927982F88273327822BC0
S11353E0932B87749C7C8154984809F441E04423AE
S11353F001F1289886E88EBD0DB407FEFDCF8EB569
S11354001EBC0DB407FEFDCF8EB5289A99278F7167
S113541090702091DA0C4091C00B240F312D311D76
S113542043E0359527954A95E1F7281739070CF499
S113543026C1289882EC8EBD0DB407FEFDCF8EB533
S113544089E08EBD0DB407FEFDCF8EB5289A0E946B
S1135450BB037B018C01BE0184E00E944E048823BF
S113546019F4E0E0F0E005C088818550FE01E80F02
S1135470F11D289881E88EBD0DB407FEFDCF8EB5D1
S11354801EBC0DB407FEFDCF8EB5289A8F718930EE
S113549079F0289882EC8EBD0DB407FEFDCF8EB551
S11354A086E08EBD0DB407FEFDCF8EB5289AE7C009
S11354B08FB7F89499272F9A209184003091850012
S11354C08FBF2F98289880E68EBD98810DB407FE73
S11354D0FDCF8EB59EBD792F7250773010F4672FB3
S11354E001C067E0D401962F4D910DB407FEFDCFA6
S11354F08EB54EBD9150C1F761502401460E511C2A
S11355006F5F0894411C511C2E193F092E553F4FC3
S11355103901882477FC8094982C6E0C7F1C801EA3
S1135520911E309719F4972F961B45C02081E18076
S11355308281A3809927AA27BB27BA2FA92F982F46
S11355408827332744275527522F442733272227D8
S1135550FF24002711278701FF24EE242E293F2949
S1135560402B512BBB24CC24DD242A293B294C2954
S11355705D29822B932BA42BB52B86199709A80997
S1135580B9098383292F3A2F4B2F552722839D0155
S11355904427552721838B2F9927AA27BB2780834C
S11355A0C2CFD2012C910DB407FEFDCF0894411C4B
S11355B0511C8EB52EBD9150A0F70DB407FEFDCF42
S11355C08EB5289A289882EC8EBD0DB407FEFDCFC7
S11355D08EB586E08EBD0DB407FEFDCF8EB5289A3C
S11355E03097D1F12081E1808281A3809927AA2775
S11355F0BB27BA2FA92F982F88273327442755274D
S1135600522F442733272227FF24002711278701FD
S1135610FF24EE242E293F29402B512BBB24CC24DC
S1135620DD242A293B294C295D29822B932BA42B89
S1135630B52B860D971DA81DB91D8383292F3A2FDD
S11356404B2F552722839D014427552721838B2FD8
S11356509927AA27BB278083BE0181E00E94AD035E
S1135660C059DF4F688279828A829B8286E0809368
S1135670571984E08093740B80E090E002C085E0C9
S113568090E0DF91CF911F910F91FF90EF90DF9009
S1135690CF90BF90AF909F908F907F906F905F90CE
S11356A04F900895AF92BF92CF92DF92EF92FF9204
S11356B00F931F93CF93DF9380915715882309F499
S11356C00CC10E949A27882309F407C18FB7F89464
S11356D09927C091DD0CD091DE0C8FBF1092571525
S11356E028988FE88EBD0DB407FEFDCF8EB51EBC85
S11356F00DB407FEFDCF8EB5289A982F8091740BB8
S1135700833011F0873031F485E08093571988E0B5
S11357108093740BA92EBB24A2FE6DC08091740BE0
S1135720863019F41092740B03C0882309F063C007
S1135730943009F04BC0289886E88EBD0DB407FE5E
S1135740FDCF8EB51EBC0DB407FEFDCFFEB4289A66
S11357502FE1F2228091C00B982F96959695EF2D0C
S1135760E91B8E0F8093C00B0091980B1091990B3D
S1135770F801EC58FF4F80818B7F8083B80183E070
S11357800E94AD030B581F4FF801F1820E94BB0326
S11357906B017C010091980B1091990BB80181E089
S11357A00E94AD0300591F4FCC19DD092797CE0184
S11357B0AA2797FDA095BA2F8C0D9D1DAE1DBF1D68
S11357C0F80180839183A283B38312C0E091980B84
S11357D0F091990BEC58FF4F8081877F8083E09193
S11357E0980BF091990BEC58FF4F80818D7F80834B
S11357F085E08093740BA3FE70C08091740B843099
S113580009F04EC085E0809357191092740B809173
S11358109B0B833019F410929B0B5FC0C091D81975
S1135820D091D919CE010E94E003882389F18A819D
S113583029819927982F88273327822B932B8774C4
S11358409C7C8154984821F58F812E819927982F2B
S113585088273327822B932B8F5F9F4FC9F090E0CB
S113586080911911882309F491E0992389F012E0B9
S11358701093ED0C81E08093191180918400909134
S1135880850069E973E00E94F10310939B0B25C026
S113589010929B0B1092C40B80E00E948F291DC0B4
S11358A08530D9F42091DA0C289886E88EBD0DB4A1
S11358B007FEFDCF8EB51EBC0DB407FEFDCF8EB521
S11358C0289A8F71922F96959695891B280F20936D
S11358D0DA0C89E08093740B08C09091740B9923BF
S11358E009F4E8C2993009F015C2289880E28EBD07
S11358F00DB407FEFDCF8EB51EBC0DB407FEFDCF63
S11359008EB5482F5527433008F49CC3842F99271C
S1135910823791050CF096C31EBCE091980BF09170
S1135920990B4083542F5250573010F4452F01C027
S113593047E0DF011196242FFD0160E070E00DB413
S113594007FEFDCF8EB51EBC992781936827062ECE
S11359506295607F6025072E762F62956F7006260C
S1135960669576276727660F660F660F60252150B8
S113597031F74150A40FB11D4F5F1196E091980B80
S1135980F091990B818190E08770823009F491E065
S1135990992349F020E030E080919B0B823081F420
S11359A021E030E00DC08FB7F894282F332790E022
S11359B080914C15833008F491E02FBF292F3327B1
S11359C0232B09F45EC0952F941B18C00DB407FE59
S11359D0FDCF8EB51EBC8C938D916827062E6295E3
S11359E0607F6025072E762F62956F700626669578
S11359F076276727660F660F660F6025915030F78C
S1135A000DB407FEFDCF8EB51EBC9B012827022EC8
S1135A102295207F2025032E322F22952F700226D7
S1135A20269532272327220F220F220F20250DB47B
S1135A3007FEFDCF8EB51EBC2827022E2295207F9F
S1135A402025032E322F22952F70022626953227E9
S1135A502327220F220F220F20250DB407FEFDCF8E
S1135A608EB5E091980BF091990BEB58FF4F808322
S1135A70289A15E0109357191092740B232B31F0C8
S1135A8015C20DB407FEFDCF8EB5DCC2E090980BB5
S1135A90F090990B67010894C11CD11CF701818116
S1135AA090E0282F3327277030702230310509F415
S1135AB091E080919B0B992321F1823009F025C15B
S1135AC0F7019381E091D819F091D919838198173E
S1135AD009F01BC12230310509F017C180916F0014
S1135AE08D7F80936F0010921911BF0180E00E9496
S1135AF0AD0310929B0B1092C40B80E00E948F297F
S1135B0004C18823C9F4C7010E941B048823A1F09F
S1135B1010935F0F82E08093600F1092610FF70182
S1135B2083818093620F8FE59FE00E949C298823E4
S1135B3019F483E080939B0B0091840010918500FD
S1135B40C7010E941B04882311F0045E1C4F1093AC
S1135B50E10F0093E00F80918400909185009801FB
S1135B60281B390B12161306A4F48091C40B882346
S1135B7069F490E080911911882309F491E0992344
S1135B8041F0C9010E948C2780E801C0806880939D
S1135B90C40BF601808527819927582F4427332782
S1135BA0422B532B8091A00B282F3327F901EE0FA2
S1135BB0FF1FE45AFA4E8081918170911A11841763
S1135BC0950769F4F901EE52F64E8081871709F4BE
S1135BD067C0872F8F5F80931A1180831DC000E0F8
S1135BE010E080E090E0CCE5D5E1E2EDF9E1DF0101
S1135BF0682F9C01888199818417950779F42093F3
S1135C00A00B90911A118C91891709F449C0892F1E
S1135C108F5F80931A118C9300E829C08081972F9D
S1135C20981B091710F4092F122F6F5FC9010196F1
S1135C3011962296319685309105D1F66530B9F4E6
S1135C401093A00BA12FBB27FD01EE0FFF1FE45AF9
S1135C50FA4E5183408380911A118F5F80931A11F9
S1135C60FD01EE52F64E8083A252B64E1C929091E4
S1135C701A11892F8F778F3779F40F3768F0E2ED97
S1135C80F9E1292F207880818F6789132083319649
S1135C9089E1E73DF807B9F78091A00B282F332756
S1135CA0F6019281A22FBB27FD01E252F64E8081BC
S1135CB080FF07C0FD01E35BFA4E8081981729F14C
S1135CC002C081608083A35BBA4E9C93DFB6F894D4
S1135CD080914C158330B0F4E0917215E80FE330F5
S1135CE008F0E350FF27EE0FFF1FE457F44F008145
