S01700006275696C642F697269732F6D61696E2E7372656343
S11300000C9469000C9488000C9488000C9488006B
S11300100C9488000C9488000C9488000C9488003C
S11300200C9488000C9488000C9488000C9488002C
S11300300C9488000C9407220C9488000C94F516F8
S11300400C942E2A0C94642A0C94AC170C94B717B5
S11300500C94C2170C9488000C9488000C948800AB
S11300600C9409170C9488000C9488000C94880054
S11300700C9488000C9488000C9488000C948800DC
S11300800C9488000C9488000C9488000C948800CC
S11300900C9488000C9488000C9488000C948800BC
S11300A00C9488000C9488000C9488000C948800AC
S11300B00C9488000C9488000C9488000C9488009C
S11300C00C9488000C9488000C94880000020E069E
S11300D00C0411241FBECFEFD1E2DEBFCDBF14E06C
S11300E0A0E0B2E0ECE4FFE900E00BBF02C007903F
S11300F00D92A834B107D9F71EE0A8E4B4E001C01A
S11301001D92A13EB107E1F70E9455490C94A54FF9
S11301100C9400008FB7F894992708958FBF089521
S1130120DA01582F569556955695382F377080E03A
S113013009F081E0452F480F20E008C0FB01E20FE1
S1130140F11D808191818927808B2F5F2417B1F75E
S1130150852F9927343000F5860F971F11969C93AD
S11301608E9360E016C04D915C91119721E170E08F
S11301702150FA01E20FF11D9081991F9927991FCF
S11301808081880F872B8083222311F0792FF0CF71
S11301906F5F631741F7089558E0531B860F971F4D
S11301A011969C938E9340E014C060E020E030E010
S11301B0FC01908197959927979580818695862B48
S11301C081932F5F3F4F2131310511F0692FF1CF1A
S11301D04F5F8D919C911197451739F701968D9337
S11301E09C9308952091ED0A3091EE0A10924B04ED
S11301F080910F06823031F481E894E0281711F4DD
S113020010924A040895282F9FB7F894E82FFF27E7
S1130210EA59FB4F80818F3F81F4E091D90EE217B8
S113022071F40BC02093EA0A04C0FF27EA59FB4F7C
S113023020832093D90E20E007C025E005C08091DB
S1130240EA0A8F3F91F7EECF892F99278FBF822F2C
S113025099270895882319F08CB5806402C08CB561
S11302608F7B8CBD0895882319F08CB5806802C0FB
S11302708CB58F778CBD08950F931F9380E00E94F7
S11302802A010FB7F8941127229A2398219A209AC9
S11302908CB580618CBD80E00E9433018CB5877F72
S11302A08CBD8CB58B7F8CBD81E00E942A018DB5FD
S11302B081608DBD8CB58C7F8CBD0FBF1F910F915C
S11302C008950F931F93CF93DF93182F0FB7F894CC
S11302D080914D04882311F40E943C01802F9927BA
S11302E08FBF8FB7F894C82FDD272C2F80914D0432
S11302F0882361F481E080934D041093940589E090
S11303000E940301CFBF80E090E021C0E12FFF27CE
S1130310ED56FA4F80818F3F89F4E0910902E1178D
S113032089F40CC01093080204C0FF27ED56FA4F5D
S113033010831093090280E090E002C085E090E011
S11303402FBF05C0809108028F3F79F7EBCFDF9173
S1130350CF911F910F910895FB01EC58FF4F21E0BD
S113036030E002C0220F331F8A95E2F78081822B8E
S1130370808308958FB7F89420918E0630918F066C
S11303804091900650919106E0918400F09185008F
S1130390B09B08C02F5F3F4F4F4F5F4FE0918400E9
S11303A0F091850099278FBFC901772766279F01A0
S11303B044275527622B732B842B952B0895FC011E
S11303C082819927982F882721813327822B932B89
S11303D025E0969587952A95E1F7817090700895A8
S11303E0AC01EFB7F8942091840030918500C901E5
S11303F0841B950B03968617970720F0B9016D5F50
S11304007F4F02C0640F751F6115710511F461E01F
S113041070E061507040709389006093880082E0BE
S113042086BB80916F00826080936F008E2F992726
S11304308FBF08958093F50A882311F484E001C0E6
S113044081E080937E0484E00E9403010895CF93A9
S1130450DF93EC010E94DF01882339F18A8129812D
S11304609927982F88273327822B932B87749C7C7A
S113047081549848D1F48F814E812FB7F894332753
S113048060910202709103022FBF20E09927982FF8
S113049088275527842B952B8617970709F021E089
S11304A081E02827822F992702C080E090E0DF9125
S11304B0CF910895FB01EC58FF4F21E030E002C0DA
S11304C0220F331F8A95E2F78081822399270895AA
S11304D0EF92FF920F931F937C018FB7F8949927A3
S11304E000915D0810915E080F5E1E4F10935E0828
S11304F000935D08015111408FBF86E00E94030103
S1130500C801B7010E940B4F8A5D9E4F1F910F9146
S1130510FF90EF9008952F923F924F925F926F92C7
S11305207F928F929F92AF92BF92CF92DF92EF927F
S1130530FF920F931F93CF93DF93CDB7DEB7299725
S11305400FB6F894DEBF0FBECDBF6FB76983F894C2
S113055020908C0530908D0540908E0550908F052D
S1130560662477248824FEE4AF2EE3E8BE2ECC2450
S1130570DD24EE24FF2400E010E0222D332D442D51
S1130580552D662D772D882D90E00E94FB4C2A83F3
S11305903B834C835D836E837F8388879987822E18
S11305A0932EA42EB52E2401350100E20E94F94DAC
S11305B0A22EB32EC42ED52EA30192015695479593
S11305C0379527952A0D3B1D4C1D5D1D57FF05C012
S11305D05F772F5F3F4F4F4F5F4F20938C053093D2
S11305E08D0540938E0550938F05E9818E2F9927B1
S11305F08FBFCA01B90129960FB6F894DEBF0FBEAA
S1130600CDBFDF91CF911F910F91FF90EF90DF90BD
S1130610CF90BF90AF909F908F907F906F905F909E
S11306204F903F902F9008959FB7F894282F332729
S113063020FF02C0129801C0129A21FF02C0119833
S113064001C0119A22FF02C0109801C0109A892F8C
S113065099278FBF0895653618F080E090E00895DB
S11306600C9608950F931F93CF93DF938C017727F4
S113067061507040A0E0B0E03327EA01FB01E80FCD
S1130680F91F06C08991808361507040319711969B
S1130690A217B30711F077FFF5CFF801E60FF71FA4
S11306A004C0108261507040319777FFFACFDF9118
S11306B0CF911F910F9108950F931F93CF93DF93C1
S11306C08C01EA012223A1F0653138F18D8980FD86
S11306D002C082E001C083E0F801808324E1AE011E
S11306E064E1C80101960E94320385E190E017C0DD
S11306F0693298F0FC0184E0819324E164E1CF0144
S11307000E943203659624E1AE0164E1C801459676
S11307100E94320389E290E002C08FEF9FEFDF91E5
S1130720CF911F910F91089520E005C0FC01E20FC5
S1130730F11D10822F5F2617C9F70895CF93DF9319
S1130740EC01E22FFF27319720E030E07727DC012E
S1130750E40FF51F05C0808131978D932F5F3F4FC4
S11307602617370719F0E417F507ACF7FE01E20F77
S1130770F31F03C011922F5F3F4F26173707D0F3A3
S1130780DF91CF9108952F923F924F925F926F9293
S11307907F928F929F92AF92BF92CF92DF92EF920D
S11307A0FF920F931F93CF93DF93FC0146954695D9
S11307B01F92CF93DF9322243324442455246624A8
S11307C0772488249924AA24332794E04A9500E0C6
S11307D010E0099F090EDB01A00DB11DEB01002EF5
S11307E0011A011619F020F00C94FA030C94C204B7
S11307F00C943005EE90DE90CE90BE90F990BF9CA4
S11308008827000C111C881F200C311C481E30F452
S1130810531E631E731E831E931EA31ECF9C882724
S1130820000C111C881F300C411C581E28F4631E38
S1130830731E831E931EA31EDF9C8827000C111CAD
S1130840881F400C511C681E20F4731E831E931EC7
S1130850A31EEF9C8827000C111C881F500C611CE0
S1130860781E18F4831E931EA31EF990BF9C88273C
S1130870000C111C881F300C411C581E28F4631EE8
S1130880731E831E931EA31ECF9C8827000C111C6D
S1130890881F400C511C681E20F4731E831E931E77
S11308A0A31EDF9C8827000C111C881F500C611CA0
S11308B0781E18F4831E931EA31EEF9C8827000C39
S11308C0111C881F600C711C881E10F4931EA31E3B
S11308D0F990BF9C8827000C111C881F400C511CE8
S11308E0681E20F4731E831E931EA31ECF9C8827AC
S11308F0000C111C881F500C611C781E18F4831EF8
S1130900931EA31EDF9C8827000C111C881F600CFB
S1130910711C881E10F4931EA31EEF9C8827000CE4
S1130920111C881F700C811C981EA31EF990BF9C7B
S11309308827000C111C881F500C611C781E18F4A9
S1130940831E931EA31ECF9C8827000C111C881F96
S1130950600C711C881E10F4931EA31EDF9C882754
S1130960000C111C881F700C811C981EA31EEF9C88
S11309708827000C111C881F800C911CA81E13953D
S11309800C94EF03EE90DE90CE90BE90F990BF9C55
S1130990200C311C431E30F4531E631E731E831E31
S11309A0931EA31ECF9C8827000C111C881F300C9B
S11309B0411C581E28F4631E731E831E931EA31E1F
S11309C0DF9C8827000C111C881F400C511C681EDA
S11309D020F4731E831E931EA31EEF9C8827000C15
S11309E0111C881F500C611C781E18F4831E931E62
S11309F0A31EF990CF9C400C511C631E20F4731E5F
S1130A00831E931EA31EDF9C8827000C111C881FC5
S1130A10500C611C781E18F4831E931EA31EEF9CB9
S1130A208827000C111C881F600C711C881E10F490
S1130A30931EA31EF990DF9C600C711C18F4831E96
S1130A40931EA31EEF9C8827000C111C881F700C9A
S1130A50811C981EA31EF990EF9C800C911CA31E70
S1130A602192319241925192130124016A2C7724EC
S1130A7088249924AA24041719F003950C94E803F4
S1130A800395102F141B949F090EDB01A00DB11DBB
S1130A90199FEB01C00DD11D002E011A011619F08A
S1130AA020F00C9457050C941F060C948D06EE90C0
S1130AB0DE90CE90BE90F990BF9C8827000C111C4C
S1130AC0881F200C311C481E30F4531E631E731EF5
S1130AD0831E931EA31ECF9C8827000C111C881F05
S1130AE0300C411C581E28F4631E731E831E931E73
S1130AF0A31EDF9C8827000C111C881F400C511C6E
S1130B00681E20F4731E831E931EA31EEF9C882769
S1130B10000C111C881F500C611C781E18F4831ED5
S1130B20931EA31EF990BF9C8827000C111C881FDC
S1130B30300C411C581E28F4631E731E831E931E22
S1130B40A31ECF9C8827000C111C881F400C511C2D
S1130B50681E20F4731E831E931EA31EDF9C882729
S1130B60000C111C881F500C611C781E18F4831E85
S1130B70931EA31EEF9C8827000C111C881F600C79
S1130B80711C881E10F4931EA31EF990BF9C882725
S1130B90000C111C881F400C511C681E20F4731E8D
S1130BA0831E931EA31ECF9C8827000C111C881F34
S1130BB0500C611C781E18F4831E931EA31EDF9C28
S1130BC08827000C111C881F600C711C881E10F4EF
S1130BD0931EA31EEF9C8827000C111C881F700C09
S1130BE0811C981EA31EF990BF9C8827000C111C21
S1130BF0881F500C611C781E18F4831E931EA31EBC
S1130C00CF9C8827000C111C881F600C711C881E47
S1130C1010F4931EA31EDF9C8827000C111C881F50
S1130C20700C811C981EA31EEF9C8827000C111CBD
S1130C30881F800C911CA81E13950C944C05EE90F3
S1130C40DE90CE90BE90F990BF9C200C311C431EC8
S1130C5030F4531E631E731E831E931EA31ECF9C6B
S1130C608827000C111C881F300C411C581E28F4C6
S1130C70631E731E831E931EA31EDF9C8827000C15
S1130C80111C881F400C511C681E20F4731E831E07
S1130C90931EA31EEF9C8827000C111C881F500C68
S1130CA0611C781E18F4831E931EA31EF990CF9C1A
S1130CB0400C511C631E20F4731E831E931EA31E3E
S1130CC0DF9C8827000C111C881F500C611C781EA7
S1130CD018F4831E931EA31EEF9C8827000C111C7E
S1130CE0881F600C711C881E10F4931EA31EF990BB
S1130CF0DF9C600C711C18F4831E931EA31EEF9CD2
S1130D008827000C111C881F700C811C981EA31EC0
S1130D10F990EF9C800C911CA31E21923192419278
S1130D205192130124016A2C772488249924AA243B
S1130D30042E000C001519F003950C944105219222
S1130D40319241925192DF91CF911F90DF91CF91D7
S1130D501F910F91FF90EF90DF90CF90BF90AF90D5
S1130D609F908F907F906F905F904F903F902F90C7
S1130D700895AC0120E00AC0FA01E20FF11D808160
S1130D80882319F080E090E008952F5F2617A1F7DB
S1130D9081E090E008952F923F924F925F926F927C
S1130DA07F928F929F92AF92BF92CF92DF92EF92F7
S1130DB0FF920F931F93CF93DF93FC01822F992708
S1130DC083709070322F36953695892B11F4832FCA
S1130DD002C0832F8F5F1F92CF93DF93222433248B
S1130DE0442455246624772488249924AA24332768
S1130DF094E08A9500E0EA01F88023961881099F1F
S1130E00090EDB01A00DB11DEA01EE90DE90CE903B
S1130E10BE90BF9C200C311C40F4431E30F4531E82
S1130E20631E731E831E931EA31ECF9C300C411C95
S1130E3038F4531E28F4631E731E831E931EA31ED0
S1130E40DF9C400C511C30F4631E20F4731E831E7F
S1130E50931EA31EEF9C500C611C28F4731E18F4FF
S1130E60831E931EA31EB19E500C611C28F4731E96
S1130E7018F4831E931EA31EC19E600C711C20F4E3
S1130E80831E10F4931EA31ED19E700C811C10F4BB
S1130E90931EA31EE19E800C911CA31E21923192ED
S1130EA041925192130124016A2C772488249924B5
S1130EB0AA24081719F003950C94FF062192319285
S1130EC041925192DF91CF911F902C5F822F9927ED
S1130ED0DF91CF911F910F91FF90EF90DF90CF9012
S1130EE0BF90AF909F908F907F906F905F904F9046
S1130EF03F902F9008952F92CF93DF93DC01EB0165
S1130F00FA01222319F480E090E012C02A95099096
S1130F102190020C0D92222339F02A9509902190F8
S1130F20021C0D920C948B072227221F822F9927D3
S1130F30DF91CF912F900895FB015527DC01A40F79
S1130F40B51F1197E40FF51F31974150504010C061
S1130F509C918081891718F481E090E008954150B4
S1130F60504011973197981718F48FEF9FEF089519
S1130F7057FFEECF80E090E008952F92CF93DF9358
S1130F80DC01EB01FA01222319F480E090E012C0A5
S1130F902A950990219002180D92222339F02A955E
S1130FA00990219002080D920C94CD072227221F4C
S1130FB0822F9927DF91CF912F900895FF920F935D
S1130FC01F93CF93DF93EC018B01F42E06C02F2DDA
S1130FD0A801BE01CE010E94BD074F2DB801CE016C
S1130FE00E949C071816190694F3DF91CF911F9164
S1130FF00F91FF9008952F923F924F925F926F92BC
S11310008F929F92AF92BF92CF92DF92EF92FF9214
S11310100F931F93CF93DF93EC01DB01FA01822F2F
S113102065E00E94FF4E782F0F921F92CF93DF93BB
S11310302224332444245524662488249924AA246D
S1131040BB24CC249927552765E07A95872F880FF0
S113105030E040E0369F060EA00DB11D1E910E91AA
S1131060FE90EE90DE902191D29E200C311C50F423
S1131070451E40F4551E651E851E951EA51EB51EF3
S1131080C51E951FE29E300C411C48F4551E38F4D1
S1131090651E851E951EA51EB51EC51E951FF29EB6
S11310A0400C511C40F4651E30F4851E951EA51E8F
S11310B0B51EC51E951F029F500C611C38F4851E79
S11310C028F4951EA51EB51EC51E951F129F600C03
S11310D0811C30F4951E20F4A51EB51EC51E951F57
S11310E02191D29E300C411C48F4551E38F4651EE3
S11310F0851E951EA51EB51EC51E951FE29E400C9D
S1131100511C40F4651E30F4851E951EA51EB51EA7
S1131110C51E951FF29E500C611C38F4851E28F4E0
S1131120951EA51EB51EC51E951F029F600C811C31
S113113030F4951E20F4A51EB51EC51E951F129FE2
S1131140800C911C28F4A51E18F4B51EC51E951F0D
S11311502191D29E400C511C40F4651E30F4851E32
S1131160951EA51EB51EC51E951FE29E500C611C42
S113117038F4851E28F4951EA51EB51EC51E951FA0
S1131180F29E600C811C30F4951E20F4A51EB51E41
S1131190C51E951F029F800C911C28F4A51E18F4EF
S11311A0B51EC51E951F129F900CA11C20F4B51EE0
S11311B010F4C51E951F2191D29E500C611C38F469
S11311C0851E28F4951EA51EB51EC51E951FE29EFC
S11311D0600C811C30F4951E20F4A51EB51EC51E9E
S11311E0951FF29E800C911C28F4A51E18F4B51EC0
S11311F0C51E951F029F900CA11C20F4B51E10F46F
S1131200C51E951F129FA00CB11C10F4C51E951F7E
S11312102191D29E600C811C30F4951E20F4A51EF1
S1131220B51EC51E951FE29E800C911C28F4A51EB8
S113123018F4B51EC51E951FF29E900CA11C20F437
S1131240B51E10F4C51E951F029FA00CB11C10F40E
S1131250C51E951F129FB00CC11C951F431719F092
S113126043950C942E082992399249925992699285
S1131270140125016C2C892E9924AA24BB24CC2486
S11312809927369F060EE019F109371719F033959F
S11312900C9429083395E60FF51F769F060EA00DD2
S11312A0B11D432F471B1E910E91FE90EE90DE90D0
S11312B02191D29E200C311C50F4451E40F4551E41
S11312C0651E851E951EA51EB51EC51E951FE29E94
S11312D0300C411C48F4551E38F4651E851E951EBD
S11312E0A51EB51EC51E951FF29E400C511C40F450
S11312F0651E30F4851E951EA51EB51EC51E951FC0
S1131300029F500C611C38F4851E28F4951EA51EFE
S1131310B51EC51E951F129F600C811C30F4951ECE
S113132020F4A51EB51EC51E951F2191D29E300C1A
S1131330411C48F4551E38F4651E851E951EA51ED5
S1131340B51EC51E951FE29E400C511C40F4651E3F
S113135030F4851E951EA51EB51EC51E951FF29E52
S1131360500C611C38F4851E28F4951EA51EB51E6C
S1131370C51E951F029F600C811C30F4951E20F43D
S1131380A51EB51EC51E951F129F800C911C28F426
S1131390A51E18F4B51EC51E951F2191D29E400CA2
S11313A0511C40F4651E30F4851E951EA51EB51E05
S11313B0C51E951FE29E500C611C38F4851E28F44E
S11313C0951EA51EB51EC51E951FF29E600C811CA0
S11313D030F4951E20F4A51EB51EC51E951F029F50
S11313E0800C911C28F4A51E18F4B51EC51E951F6B
S11313F0129F900CA11C18F4B51EC51E951F2191B7
S1131400D29E500C611C38F4851E28F4951EA51E2E
S1131410B51EC51E951FE29E600C811C30F4951EFE
S113142020F4A51EB51EC51E951FF29E800C911CAE
S113143028F4A51E18F4B51EC51E951F029F900C16
S1131440A11C20F4B51E10F4C51E951F129FA00CFC
S1131450B11C10F4C51E951F2191D29E600C811CF5
S113146030F4951E20F4A51EB51EC51E951FE29EE0
S1131470800C911C28F4A51E18F4B51EC51E951FDA
S1131480F29E900CA11C20F4B51E10F4C51E951FED
S1131490029FA00CB11C10F4C51E951F129FB00C26
S11314A0C11C951F471719F043950C9453092992B1
S11314B03992499259926992140125016C2C892E12
S11314C09924AA24BB24CC249927082E031A069E07
S11314D0E019F109060EA00DB11D381719F0339566
S11314E00C94510929923992499259926992DF9147
S11314F0CF911F900F90DF91CF911F910F91FF908B
S1131500EF90DF90CF90BF90AF909F908F906F90AF
S11315105F904F903F902F9008957727FC01E60F3E
S1131520F71F31976150704007C08081B901615045
S113153070403197882319F49B0177FFF6CFC901D6
S113154001960895282F80E090E0222331F001963F
S11315508830910511F02695F8CF0895EF92FF9207
S11315600F931F93CF93DF937C018B01483018F0C6
S113157080E090E02CC088E0841B30E050E0C42F71
S1131580DD27682F77271FC0A52FBB27F801EA0F97
S1131590FB1F8081E82FFF27AE0DBF1DCF010C2E4E
S11315A002C0880F991F0A94E2F7382B3C93442316
S11315B011F430E007C0062E02C0F595E7950A94B1
S11315C0E2F73E2F5F5F5217F9F6832F9927DF91D9
S11315D0CF911F910F91FF90EF9008950F931F9358
S11315E0CF93DF93FC01822F483018F080E090E025
S11315F032C028E0241B9927DB01A80FB91F1197DB
S1131600E80FF91F319750E0042F1127C22FDD276F
S11316109C01215030401BC08C91682F7727CB014F
S1131620002E02C0959587950A94E2F7582B5083B3
S1131630442311F450E007C00C2E02C0660F771F3C
S11316400A94E2F7562F215030401197319737FF13
S1131650E3CF852F9927DF91CF911F910F910895A3
S11316602F923F924F925F926F927F928F929F92AE
S1131670AF92BF92CF92DF92EF92FF920F931F939C
S1131680CF93DF93CDB7DEB7CA54D0400FB6F894EA
S1131690DEBF0FBECDBF28969FAF8EAF28972A9688
S11316A07FAF6EAF2A971A01522E68012B96EFAEC8
S11316B02B976E2DC8010E948D0A4C01009709F4E6
S11316C0F7C0F801E80FF91F319780810E94A20A40
S11316D07C0126968FAE2697B7E1AB2EB12CAC0ECB
S11316E0BD1E682DC5010E949403652C772408E073
S11316F010E00E191F0925960FAF2597252D402FB1
S1131700B101C5010E94AE0AF501E60DF71D808303
S1131710282D402FB6018E010F5F1F4FC8010E9474
S1131720AE0A080D191D01501040F80100812496DD
S11317300FAF249728968EAD9FAD2897009719F088
S1131740652D0E94940323014818590828962EAC4D
S11317503FAC2897240C351C3501640C751C6201C0
S1131760C80CD91CAC0CBD1C89C024969FAD249711
S11317709F3F29F4FE01EC0DFD1DE7881AC0F50119
S113178080819927982F882722915F010894A11CB2
S1131790B11C33272496FFAD2497FF5F6F2F772763
S11317A0F1502496FFAF2497822B932B0E940B4F6A
S11317B0E62EFE01EC0DFD1D3789EE2019F480E0C4
S11317C090E019C0F30120E0DE011196AD01480D4F
S11317D0511D0CC080819D911F92821B882F20E097
S11317E0221FE99E8019211D1F908193A417B5071C
S11317F089F7822F9927FE01EC0DFD1D381B378BCD
S113180015C0E3948E01095E1F4F0C0D1D1DF801D8
S1131810F08026962FAD2697AE014F5F5F4FB30140
S1131820C3010E94BD07F81AF801F082FE01EC0D15
S1131830FD1D8789882329F726964FAD2697BE017B
S11318406F5F7F4FC3010E949C0797FFDACF2896F2
S11318508EAD9FAD2897892B11F0F101E082089499
S11318604108510808942108310808946108710856
S11318700894C108D1080894A108B10857FE75CF8F
S11318802B966FAD2B972A968EAD9FAD2A970E940B
S1131890940326962FAD269725964FAD2597BE0126
S11318A0695E7F4F2A968EAD9FAD2A970E94EE0AFD
S11318B0C65BDF4F0FB6F894DEBF0FBECDBFDF911E
S11318C0CF911F910F91FF90EF90DF90CF90BF9039
S11318D0AF909F908F907F906F905F904F903F90CC
S11318E02F9008958F929F92AF92BF92CF92DF92E2
S11318F0EF920F931F93CF93DF93CDB7DEB7AA97E1
S11319000FB6F894DEBF0FBECDBF4C0159011AA625
S113191019A6202F6E010894C11CD11CC6010E9477
S1131920FB07202F3327220F331FE02E8501A6014A
S1131930B40180E090E00E94300BAA960FB6F894B0
S1131940DEBF0FBECDBFDF91CF911F910F91EF90FE
S1131950DF90CF90BF90AF909F908F9008950F939A
S11319601F93CF93DF93EC010E948D0A082F8823E5
S113197019F420E030E010C01127C00FD11F2197C7
S113198088810E94A20A980103E0220F331F0A955E
S1131990E1F70897280F391FC901DF91CF911F91F3
S11319A00F9108954FB7F8948091950590919605FD
S11319B09C01220F331F97FF04C08BE090E128277E
S11319C03927C90101969093960580939505209136
S11319D058043091590482279327242F33272FBF8B
S11319E008950F931F938C0165E10E94940365E1B0
S11319F0C80145960E9494031F910F910895DC013C
S1131A00FC0191E08181882319F080E090E0089541
S1131A109F5F31969531B1F720E030E08C918130B1
S1131A2011F421E030E0C9010895CF93DF93EC0174
S1131A3065E10E94B906892B11F420E009C065E133
S1131A40CE0145960E94B90620E0892B09F021E0D9
S1131A50822F9927DF91CF910895FC01892B19F4E6
S1131A6081E090E00895148A158A168A178A108EE8
S1131A70118E128E138E158E148E81E093E2A5E4DE
S1131A80B7E680839183A283B38389E89BEAADECB4
S1131A90BFEE84839583A683B7838EEF9CEDAAEB78
S1131AA0B8E980879187A287B38786E794E5A2E3A4
S1131AB0B0E184879587A687B78780EF91EEA2ED82
S1131AC0B3EC808B918BA28BB38BE25AFF4F1192B4
S1131AD011921182108280E090E008952F923F923B
S1131AE04F925F926F927F928F929F92AF92BF922A
S1131AF0CF92DF92EF92FF920F931F93CF93DF93D6
S1131B00CDB7DEB7CC57D0400FB6F894DEBF0FBECA
S1131B10CDBFED969FAF8EAFED97FC017E96BE01D3
S1131B206F5F7F4F41E4C42ED12CCC0EDD1EE080CC
S1131B30FF24002711271E2D0027FF24EE24818176
S1131B409927AA27BB27DC0199278827E82AF92A9D
S1131B500A2B1B2B2281332744275527542F432F2D
S1131B60322F222783819927AA27BB27E82AF92A1B
S1131B700A2B1B2B2E293F29402B512BDB012D93A4
S1131B803D934D935D93BD013496AC15BD0579F637
S1131B90ED96AEADBFADED97ED90FD900D911C911E
S1131BA01397A296ECAEFDAE0EAF1FAFA297FD0148
S1131BB0A480B580C680D780E084F1840285138533
S1131BC0EA96ECAEFDAE0EAF1FAFEA97E484F5845F
S1131BD006851785E696ECAEFDAE0EAF1FAFE69711
S1131BE0E088F18802891389A2962CAC3DAC4EACF6
S1131BF05FACA29722961FAE2297EB961FAEEB978F
S1131C008EC0EB96FFADEB97FF702296FFAF229745
S1131C10EB960FADEB97003108F45FC0EF2FFF2771
S1131C208F01000F111F000F111F21E030E02C0F56
S1131C303D1F020F131FBF016E5F7F4F6F707070E7
S1131C40660F771F660F771F620F731F3D96DF01C4
S1131C50AF70B070AA0FBB1FAA0FBB1FA20FB31F98
S1131C603597EF70F070EE0FFF1FEE0FFF1FE20FBE
S1131C70F31F8D919D910D90BC91A02D20813181F8
S1131C804281538182279327A427B527F801208115
S1131C9031814281538182279327A427B527FB01F1
S1131CA0208131814281538182279327A427B5273C
S1131CB09C01AD01220F331F441F551F8827B7FD18
S1131CC083959927AA27BB27822B932BA42BB52B6B
S1131CD0F80180839183A283B383E696ECACFDACD8
S1131CE00EAD1FADE697EA962CAD3DAD4EAD5FADA2
S1131CF0EA97E6962CAF3DAF4EAF5FAFE697620131
S1131D0051011301240126968CAD9DADAEADBFAD3E
S1131D102697EA968CAF9DAFAEAFBFAFEA97EA962F
S1131D206CAC7DAC8EAC9FACEA976A207B208C2097
S1131D309D20D601C50180959095A095B095E69615
S1131D402CAD3DAD4EAD5FADE69782239323A42326
S1131D50B523682A792A8A2A9B2A22963FAD22979C
S1131D60E32FFF27EE0FFF1FEE0FFF1F41E050E0B0
S1131D704C0F5D1FE40FF51F80819181A281B38117
S1131D80680E791E8A1E9B1ED201C1017BE1B695A5
S1131D90A795979587957A95D1F7A201910165E06A
S1131DA0220F331F441F551F6A95D1F7822B932BA3
S1131DB0A42BB52B8E0D9F1DA01FB11F87569648CF
S1131DC0AD47B54A680E791E8A1E9B1ED601C50111
S1131DD01EE1880F991FAA1FBB1F1A95D1F7F2E0C5
S1131DE0D694C794B794A794FA95D1F78A299B29D6
S1131DF0AC29BD2926968CAF9DAFAEAFBFAF269759
S1131E00EB969FADEB979F5FEB969FAFEB9794316B
S1131E1009F0F7CE66966CAE7DAE8EAE9FAE669739
S1131E20EA96ECACFDAC0EAD1FADEA97E296ECAED3
S1131E30FDAE0EAF1FAFE297E6960CAD1DAD2EAD15
S1131E403FADE6972E960CAF1DAF2EAF3FAF2E974A
S1131E50EB966FADEB976F7077278B010E5F1F4F7B
S1131E600F701070000F111F000F111F21E030E0E0
S1131E702C0F3D1F020F131FDB011D96AF70B070B6
S1131E80AA0FBB1FAA0FBB1FA20FB31FFB013896DB
S1131E90EF70F070EE0FFF1FEE0FFF1FE20FF31F46
S1131EA08D919D910D90BC91A02D20813181428115
S1131EB0538182279327A427B527660F771F660FC0
S1131EC0771F41E050E04C0F5D1F640F751FFB014D
S1131ED0208131814281538182279327A427B5270A
S1131EE0F801208131814281538182279327A427DD
S1131EF0B5277C018D01EE0CFF1C001F111F8827E4
S1131F00B7FD83959927AA27BB27E82AF92A0A2B24
S1131F101B2BDB01ED92FD920D931C9313972696D8
S1131F20ACACBDACCEACDFAC2697A224B324C424A5
S1131F30D524E2962CAD3DAD4EAD5FADE297A22621
S1131F40B326C426D52666968CAD9DADAEADBFAD89
S1131F5066977BE1B695A795979587957A95D1F77E
S1131F6066962CAD3DAD4EAD5FAD669765E0220F34
S1131F70331F441F551F6A95D1F7822B932BA42B33
S1131F80B52B2E962CAD3DAD4EAD5FAD2E97820F89
S1131F90931FA41FB51FA80EB91ECA1EDB1E81EA1B
S1131FA09BEEA9EDBEE6A80EB91ECA1EDB1EAE0C42
S1131FB0BF1CC01ED11E42013101BEE1660C771C5C
S1131FC0881C991CBA95D1F7A2E05694479437948B
S1131FD02794AA95D1F76228732884289528EB962C
S1131FE09FADEB979F5FEB969FAFEB97E296ECACC0
S1131FF0FDAC0EAD1FADE2972E96ECAEFDAE0EAF6E
S11320001FAF2E9726968CAD9DADAEADBFAD269776
S113201066962CAC3DAC4EAC5FAC6697EB960FADC0
S1132020EB970832F9F46A96ACAEBDAECEAEDFAE35
S11320306A97A6962CAE3DAE4EAE5FAEA697AE9610
S11320408CAF9DAFAEAFBFAFAE97E2962CAD3DADBA
S11320504EAD5FADE29762962CAF3DAF4EAF5FAF32
S1132060629721C06696ACAEBDAECEAEDFAE6697CB
S113207026966CAE7DAE8EAE9FAE2697E2968CAF62
S11320809DAFAEAFBFAFE297E3CE6A96ACAEBDAE46
S1132090CEAEDFAE6A9742013101AE968CAF9DAFF2
S11320A0AEAFBFAFAE97EB966FADEB976F70772780
S11320B08B010E5F1F4F0F701070000F111F000F68
S11320C0111F41E050E04C0F5D1F040F151FDB0191
S11320D01D96AF70B070AA0FBB1FAA0FBB1FA40F31
S11320E0B51FFB013896EF70F070EE0FFF1FEE0F77
S11320F0FF1FE40FF51F8D919D910D90BC91A02DB4
S1132100208131814281538182279327A427B527D7
S1132110660F771F660F771FE1E0F0E0EC0FFD1FFD
S11321206E0F7F1FFB012081318142815381822701
S11321309327A427B527F801208131814281538157
S113214082279327A427B5277C018D01EE0CFF1C61
S1132150001F111F8827B7FD83959927AA27BB273E
S1132160E82AF92A0A2B1B2BDB01ED92FD920D9331
S11321701C931397AE96ACACBDACCEACDFACAE97B3
S1132180A628B728C828D928A6962CAD3DAD4EADB3
S11321905FADA697A222B322C422D522AE968CADFF
S11321A09DADAEADBFADAE9786219721A821B921D3
S11321B0A82AB92ACA2ADB2A6A968CAD9DADAEAD8F
S11321C0BFAD6A977BE1B695A795979587957A9564
S11321D0D1F76A962CAD3DAD4EAD5FAD6A9765E023
S11321E0220F331F441F551F6A95D1F7822B932B5F
S11321F0A42BB52B62962CAD3DAD4EAD5FAD629771
S1132200820F931FA41FB51FA80EB91ECA1EDB1E82
S11322108CED9CEBABE1BFE8A80EB91ECA1EDB1E19
S1132220AE0CBF1CC01ED11EA6962CAC3DAC4EAC51
S11322305FACA6974EE1220C331C441C551C4A95F6
S1132240D1F7A696ECACFDAC0EAD1FADA69732E06F
S113225016950795F794E7943A95D1F72E283F28D9
S1132260402A512AEB960FADEB970F5FEB960FAF19
S1132270EB97AE962CAD3DAD4EAD5FADAE9762968D
S11322802CAF3DAF4EAF5FAF6297D401C3016A96E6
S1132290ECACFDAC0EAD1FAD6A97A696ECAEFDAEF0
S11322A00EAF1FAFA697EB960FADEB970C3309F06B
S11322B0ECCE6E96ACAEBDAECEAEDFAE6E976A9689
S11322C02CAD3DAD4EAD5FAD6A97AA962CAF3DAF38
S11322D04EAF5FAFAA97AE968CAD9DADAEADBFAD20
S11322E0AE972A968CAF9DAFAEAFBFAF2A97EB9651
S11322F06FADEB976F7077278B010E5F1F4F0F70D9
S11323001070000F111F000F111FA1E0B0E0AC0FFF
S1132310BD1F0A0F1B1FDB011D96AF70B070AA0F03
S1132320BB1FAA0FBB1FE1E0F0E0EC0FFD1FAE0FD7
S1132330BF1FFB013896EF70F070EE0FFF1FEE0F1A
S1132340FF1F51E0E52EF12CEC0EFD1EEE0DFF1DDE
S11323508D919D910D90BC91A02D20813181428160
S1132360538182279327A427B527660F771F660F0B
S1132370771F6E0D7F1DFB012081318142815381C6
S113238082279327A427B527F80120813181428130
S1132390538182279327A427B5277C018D01EE0C56
S11323A0FF1C001F111F8827B7FD83959927AA27B3
S11323B0BB27E82AF92A0A2B1B2BDB01ED92FD929D
S11323C00D931C931397AA96ACACBDACCEACDFAC0A
S11323D0AA97A224B324C424D524A624B724C824A9
S11323E0D9246E968CAD9DADAEADBFAD6E97FBE1BD
S11323F0B695A79597958795FA95D1F76E962CADD6
S11324003DAD4EAD5FAD6E97E5E0220F331F441F27
S1132410551FEA95D1F7822B932BA42BB52B2A9623
S11324202CAD3DAD4EAD5FAD2A97820F931FA41F17
S1132430B51FA80EB91ECA1EDB1E86ED91ECA2E6DE
S1132440BAECA80EB91ECA1EDB1EAE0CBF1CC01E01
S1132450D11EAA962CAD3DAD4EAD5FADAA977EE1DF
S1132460220F331F441F551F7A95D1F7AA96ECAC5F
S1132470FDAC0EAD1FADAA9762E016950795F794D3
S1132480E7946A95D1F72E293F29402B512BEB96DF
S11324900FADEB970F5FEB960FAFEB972A966CAEF1
S11324A07DAE8EAE9FAE2A97D201C1016E96ECAC82
S11324B0FDAC0EAD1FAD6E97AA96ECAEFDAE0EAFA1
S11324C01FAFAA97EB960FADEB97003559F06E96B8
S11324D0ACAEBDAECEAEDFAE6E9719012A013C01A3
S11324E04D0105CFA2968CAD9DADAEADBFADA2970B
S11324F08A0D9B1DAC1DBD1DED96EEADFFADED9798
S113250080839183A283B38384819581A681B781DB
S11325106E96ECACFDAC0EAD1FAD6E978E0D9F1D8F
S1132520A01FB11F84839583A683B783808591857B
S1132530A285B385820F931FA41FB51F808791873F
S1132540A287B38784859585A685B785820D931D5B
S1132550A41DB51D84879587A687B787808991892F
S1132560A289B389860D971DA81DB91D808B918BF7
S1132570A28BB38B158E148EC458DF4F0FB6F8940C
S1132580DEBF0FBECDBFDF91CF911F910F91FF90A2
S1132590EF90DF90CF90BF90AF909F908F907F90FF
S11325A06F905F904F903F902F900895AF92BF929D
S11325B0CF92DF92EF92FF920F931F93CF93DF930B
S11325C0EC016B0179018A012115310541055105A1
S11325D019F4AA24BB2473C0892B09F46DC0672B9A
S11325E009F46AC0C25ADF4F88819981CE55D04020
S11325F0FE01E05AFF4F892B41F083E090E0918384
S1132600808363E0A62EB12C5AC0A080B180A114AF
S1132610B104D1F154C08C8D9D8DFC01EC0FFD1FD4
S1132620D6012C91268F01969D8F8C8F8C899D8944
S1132630AE89BF890896A11DB11D8C8B9D8BAE8B75
S1132640BF8B0097A105B105A1F4888D998DAA8D42
S1132650BB8D0196A11DB11D888F998FAA8FBB8F49
S11326600097A105B10529F481E090E0FA01918376
S113267080838C8D9D8D8034910519F4CE010E9448
S11326806E0D0894C11CD11C0894E108F1080109DD
S11326901109FFEFEF16FFEFFF06FFEF0F07FFEF44
S11326A01F0769F0AE01405A5F4FDA018D919C918A
S11326B0892B09F4B0CF03C051E0A52EB12CC5017C
S11326C0DF91CF911F910F91FF90EF90DF90CF900A
S11326D0BF90AF900895EF92FF920F931F93CF9303
S11326E0DF93EC018B01892B09F4D1C0672B09F42A
S11326F0CEC0C05ADF4FE880F980C056D040E11404
S1132700F10409F0C7C0C25ADF4F88819981CE55C0
S1132710D040892B09F08FC08C8D9D8DFC01EC0F6E
S1132720FD1F9C012F5F3F4FC89710F180E8868FF3
S11327303D8F2C8F07C0FC01EC0FFD1F168E0196F8
S11327409D8F8C8F8C8D9D8D80349105A0F3CE014F
S11327500E946E0D07C0FC01EC0FFD1F168E019642
S11327609D8F8C8F8C8D9D8D88339105A0F311C026
S113277080E8868F3D8F2C8F07C0FC01EC0FFD1F76
S1132780168E01969D8F8C8F8C8D9D8D883391052F
S1132790A0F3288D398D4A8D5B8D852F9927AA2723
S11327A0BB27CA5ADF4F8993CA01AA27BB2789933B
S11327B0232F342F452F55272883C855D040888D83
S11327C0C75ADF4F8883C955D0402C893D894E892B
S11327D05F89852F9927AA27BB27C65ADF4F89937C
S11327E0CA01AA27BB278993232F342F452F5527A6
S11327F02883CC55D0408C89C35ADF4F8883CD556C
S1132800D040CE010E946E0DFE0180E0168E8F5FD7
S113281031968034D9F71C8A1D8A1E8A1F8A188E25
S1132820198E1A8E1B8EC25ADF4F81E090E0998375
S11328308883CE55D04040E050E06FEF7FEFE42F27
S1132840E695E695FF27EE0FFF1FEE0FFF1FEC0F37
S1132850FD1F9B0123703070A3E0220F331FAA9544
S1132860E1F780819181A281B38104C0B695A795D7
S1132870979587952A95D2F7F80181938F014F5F39
S11328805F4F615070404431510521F0D8CF71E061
S1132890E72EF12CC701DF91CF911F910F91FF908B
S11328A0EF9008957FB7F8946091B200209161048D
S11328B0309162044091630450916404B99B11C047
S11328C08091B3009091B200280F311D411D511D1C
S11328D02F5F3F4F4F4F5F4F290F311D411D511D3A
S11328E004C0260F311D411D511D872F99278FBF0D
S11328F0CA01B90108958F929F92AF92BF92CF926D
S1132900DF92EF92FF920F931F93A22EB32EFC013E
S1132910E055FF4F2FB7F894332700831183A28229
S1132920B382448355836683778382E080872FBF95
S11329301F910F91FF90EF90DF90CF90BF90AF90D9
S11329409F908F900895CF93DF93FC01DB018081EA
S11329509C91892780838181EB01998189278183D7
S113296082819A818927828383819B8189278383BA
S113297084819C818927848385819D81892785839E
S113298086819E818927868387819F818927878382
S1132990808598858927808781859985892781877E
S11329A082859A858927828783859B858927838762
S11329B084859C858927848785859D858927858746
S11329C086859E858927868787859F85892787872A
S11329D0DF91CF910895FC01208188E392E0DC012E
S11329E0A20FB11D2C9120832181DC01A20FB11D06
S11329F02C9121832281DC01A20FB11D2C91228311
S1132A002381DC01A20FB11D2C9123832481DC01DD
S1132A10A20FB11D2C9124832581DC01A20FB11DCD
S1132A202C9125832681DC01A20FB11D2C912683D4
S1132A302781DC01A20FB11D2C9127832085DC01A5
S1132A40A20FB11D2C9120872185DC01A20FB11D9D
S1132A502C9121872285DC01A20FB11D2C912287A4
S1132A602385DC01A20FB11D2C9123872485DC0171
S1132A70A20FB11D2C9124872585DC01A20FB11D65
S1132A802C9125872685DC01A20FB11D2C91268768
S1132A902785820F911DDC018C9187870895CF9340
S1132AA0DF93EB013881E32FFF27EE0FFF1FE80FC1
S1132AB0F91FA081B18121E02327E22FFF27EE0F28
S1132AC0FF1FE80FF91F0190F081E02D28838C91FE
S1132AD08083ED018C818483888580878C858487BD
S1132AE08D818183898585838D858187898185878A
S1132AF08A8582838E8586838A8182878E81868772
S1132B008F8583838B8187838F8183878B85878759
S1132B10DF91CF910895CF93DF93AC01EB0120E1D6
S1132B2090E02150E22FFF27DA01AE0FBF1F3C9146
S1132B30331F3327331FEC0FFD1F8C91880F892B14
S1132B408083222311F0932FECCF2F8587E8389FC1
S1132B50C001112428272F87DF91CF910895CF93A7
S1132B60DF93EB013881E32FFF27EE0FFF1FE80F00
S1132B70F91FA081B18121E02327E22FFF27EE0F67
S1132B80FF1FE80FF91F0190F081E02D28838C913D
S1132B908083ED018C818483888580878C858487FC
S1132BA08D858183898185838D81818789858587C9
S1132BB08A8582838E8586838A8182878E818687B1
S1132BC08F8183838B8587838F8583878B81878799
S1132BD0DF91CF910895FC01208188E493E0DC012A
S1132BE0A20FB11D2C9120832181DC01A20FB11D04
S1132BF02C9121832281DC01A20FB11D2C9122830F
S1132C002381DC01A20FB11D2C9123832481DC01DB
S1132C10A20FB11D2C9124832581DC01A20FB11DCB
S1132C202C9125832681DC01A20FB11D2C912683D2
S1132C302781DC01A20FB11D2C9127832085DC01A3
S1132C40A20FB11D2C9120872185DC01A20FB11D9B
S1132C502C9121872285DC01A20FB11D2C912287A2
S1132C602385DC01A20FB11D2C9123872485DC016F
S1132C70A20FB11D2C9124872585DC01A20FB11D63
S1132C802C9125872685DC01A20FB11D2C91268766
S1132C902785820F911DDC018C9187870895DF922F
S1132CA0EF92FF920F931F938FB7F894282F332737
S1132CB0D22E9091B3008091B20047B3981711F0CF
S1132CC041FF02C02FBF71C0809180048823E1F1CD
S1132CD00E945214E0905A04F0905B0400915C044A
S1132CE010915D042091F10A3091F20A4091F30AA7
S1132CF05091F40A6E197F09800B910B62177307C8
S1132D008407950720F01092800471E01EC02E0DF8
S1132D103F1D401F511F8091610490916204A09156
S1132D206304B0916404281B390B4A0B5B0B273EE8
S1132D3031054105510540F4822F223010F070E036
S1132D4005C070E082E002C070E086EE682F61503A
S1132D508091B60083FDFCCF8091B200681709F41E
S1132D606F5F20916104309162044091630450913B
S1132D706404DA01C9010196A11DB11D860F911DDC
S1132D80A11DB11D82179307A407B50710F4622F84
S1132D9060958091B60083FDFCCF6093B300DFBEE5
S1132DA0772319F080E00E9403011F910F91FF9097
S1132DB0EF90DF900895AFB7F894BB27E1E0E0937C
S1132DC0800460935A0470935B0480935C04909332
S1132DD05D042093F10A3093F20A4093F30A50936E
S1132DE0F40AAFBF0E944F1608951F920F920FB6B8
S1132DF00F9211248F938091B0008093B000809142
S1132E00B60081FDFCCF8F910F900FBE0F901F90E5
S1132E1018951F920F920FB60F9211240F931F93C0
S1132E202F933F934F935F936F937F938F939F93CE
S1132E30AF93BF93CF93DF93EF93FF932EB5E091BE
S1132E40A406F091A506309739F0809188069091F8
S1132E508906E80FF91F20838091880690918906DE
S1132E600196909389068093880680E00E9433013E
S1132E70C0918806D0918906209150043091510464
S1132E80C217D30708F042C00091D10E1091D20EA0
S1132E904091A4065091A506CE010A962817390739
S1132EA008F4C901DA01AC0FBD1FF801EC0FFD1FD6
S1132EB09C012150304015C00115110531F080816D
S1132EC08EBD0DB407FEFDCF04C01EBC0DB407FEBD
S1132ED0FDCF8EB54115510509F08C9321961196BD
S1132EE03196C217D30740F381E00E9433010115E4
S1132EF0110531F00C0F1D1FF80180818EBD01C03A
S1132F001EBCD0938906C093880611C01092A506F2
S1132F101092A4061092D20E1092D10E1092510467
S1132F201092500410928906109288068EB5FF9173
S1132F30EF91DF91CF91BF91AF919F918F917F914D
S1132F406F915F914F913F912F911F910F910F902E
S1132F500FBE0F901F90189578941F920F920FB682
S1132F600F9211240F900FBE0F901F901895789414
S1132F701F920F920FB60F9211240F900FBE0F9055
S1132F801F90189578941F920F920FB60F921124E8
S1132F902F933F938F939F93AF93BF932FB7F8943F
S1132FA0332780918E0690918F06A0919006B09160
S1132FB091060196A11DB11D80938E0690938F06F4
S1132FC0A0939006B09391062FBFBF91AF919F91AC
S1132FD08F913F912F910F900FBE0F901F901895D6
S1132FE09F92AF92BF92CF92DF92EF92FF920F9394
S1132FF01F93CF93DF93CDB7DEB765970FB6F894E1
S1133000DEBF0FBECDBF5C01CE0106969B838A83D3
S11330105D834C831982DC01FB0180E101900D92F8
S11330208150E1F7E981FF27EE0FFF1FEC0FFD1F31
S1133030B501828193810E94A31450E1C52ED12C45
S1133040CA0CDB1C41E0942EE981FF27EE0FFF1F21
S11330507E010894E11CF11CEE0DFF1D818192811B
S11330600E94EB148E010E5F1F4FB701C8010E942E
S11330704F159981E92FFF27EE0FFF1FE00FF11F76
S11330804081518181E08927E82FFF27EE0FFF1F40
S1133090E00FF11F2081318189837A01D90100E099
S11330A0F7016081718152819381062E07FA000C29
S11330B0332730F931953B713025072E07FA000C80
S11330C0222720F921952B712025052E07FA000CC3
S11330D0442740F941954B714025092E07FA000C0D
S11330E0112710F911951B711025E92FE527832F5E
S11330F0822787278E278C93242726272E27FD01B6
S11331002183872F812746274927842782833627CF
S113311037273127532753830C5F84E090E0E80E70
S1133120F91E1496003109F0BBCFE981FF27EE0F99
S1133130FF1F8E010F5F1F4FE00FF11FB60181814A
S113314092810E94A3149394E0E1F0E0CE0EDF1E7E
S1133150FAE09F1609F078CFE981FF27EE0FFF1FF1
S1133160E00FF11F818192810E94EB14B801CE011E
S113317002960E944F1580EA90E0A80EB91EE981DC
S1133180FF27EE0FFF1FE00FF11FB5018181928130
S11331900E94A31480E090E065960FB6F894DEBF19
S11331A00FBECDBFDF91CF911F910F91FF90EF9094
S11331B0DF90CF90BF90AF909F9008952F923F9251
S11331C04F925F926F927F928F929F92AF92BF9233
S11331D0CF92DF92EF92FF920F931F93CF93DF93DF
S11331E0CDB7DEB7CA55D1400FB6F894DEBF0FBED7
S11331F0CDBF1C012B014A0159013801213431058D
S1133200DCF08E0107501F4FC8010E942D0D95015F
S1133210442737FD4095542FB401C8010E94D612AB
S11332207E010894E11CF11CB701C8010E946B13D4
S11332304701F4E1AF2EB12C8E010B5E1F4FA501A7
S1133240B401C8010E94954FE1E4EE2EF12CEA1876
S1133250FB08A70160E070E0C8018A0D9B1D0E9475
S11332609E4F76E5C72ED12CCC0EDD1EA501B401F0
S1133270C6010E94954FA70160E070E0C6018A0D67
S11332809B1D0E949E4FF801D60146E39CE5580120
S11332909E012B5A3F4F8081842781938C918927EB
S11332A08D93E217F307B9F78E0109561F4FC80132
S11332B00E942D0D20E430E040E050E0B501C8014B
S11332C00E94D6129201442737FD4095542FB10134
S11332D0C8010E94D612B301C8010E946B13C80131
S11332E00E942D0D20E430E040E050E0BE016A5A17
S11332F07F4FC8010E94D61224E130E040E050E044
S1133300B301C8010E94D612B301C8010E946B1315
S1133310C65ADE4F0FB6F894DEBF0FBECDBFDF91A5
S1133320CF911F910F91FF90EF90DF90CF90BF90BE
S1133330AF909F908F907F906F905F904F903F9051
S11333402F9008958F929F92AF92BF92CF92DF9267
S1133350EF92FF920F931F93CF93DF93CDB7DEB716
S1133360CE58D0400FB6F894DEBF0FBECDBF9C013F
S1133370DE015596FA0184E101900D928150E1F746
S113338083E0FE01B99611928A95E9F759016B0120
S1133390A1E08A2E912C35C08CA68E01035D1F4FAF
S11333A0C8010E942D0D28E130E040E050E0BE014C
S11333B06B5E7F4FC8010E94D6127E010894E11C07
S11333C0F11CB701C8010E946B1384E1C816D10433
S11333D044F0F501D70184E10D900192815031F060
S11333E0FBCFA601B701C5010E94954F0894811C2B
S11333F0911C8CEE9FEFC80ED91E84E190E0A80EBC
S1133400B91E1C141D0444F2C257DF4F0FB6F894C2
S1133410DEBF0FBECDBFDF91CF911F910F91FF9003
S1133420EF90DF90CF90BF90AF909F908F900895D2
S11334302F923F924F925F926F927F928F929F92C0
S1133440BF92CF92DF92EF92FF920F931F93CF938D
S1133450DF93CDB7DEB7C455D0400FB6F894DEBFC6
S11334600FBECDBF1C017B01BA013901B02E402E25
S11334705524A201CE0101960E94954FA201B301E9
S1133480CE0146960E94954FA201B701CE018B96BC
S11334900E94954F602FCE01805C9F4F0E94940341
S11334A09AC0BB2021F0898180FD11C0A6C020E014
S11334B041E0B801C8010E94EE0ACE018B962B2D83
S11334C041E0BC0186C08E01055D1F4F10C08E898E
S11334D080FD18C02B2D41E0B701C7010E94EE0A00
S11334E08E01005C1F4FF801808180FF06C02B2DE8
S11334F0A301B801C8010E947B072B2D41E0B8014C
S1133500C80167C09BE2892E912C8C0E9D1E80E41D
S1133510C82ED12CCC0EDD1E121613066CF52B2DE5
S1133520A701B801C8010E94BD072B2D41E0B801D5
S1133530C8010E94EE0A4B2DB601C4010E949C07EB
S113354097FF06C02B2DA301B401C4010E947B0781
S11335502B2DA601B401C4010E94BD078BA580FFD9
S113356006C02B2DA301B401C4010E947B072B2D9F
S113357041E0B401C4012DC02B2DA801B701C7013E
S11335800E94BD072B2D41E0B701C7010E94EE0A3E
S11335904B2DB401C6010E949C0797FF06C02B2D3A
S11335A0A301B601C6010E947B072B2DA401B6011D
S11335B0C6010E94BD07F601808180FF06C02B2D45
S11335C0A301B601C6010E947B072B2D41E0B60181
S11335D0C6010E94EE0AB6E1EB2EF12CEC0EFD1EA4
S11335E04B2DB7018E010F5F1F4FC8010E949C072E
S11335F09C01892B09F055CF0AC02B2D41E0B8015D
S1133600C8010E94EE0A8BA580FF57CF5CCFA201B0
S1133610BE01655D7F4FC1010E94954FCC5ADF4FBB
S11336200FB6F894DEBF0FBECDBFDF91CF911F91CF
S11336300F91FF90EF90DF90CF90BF909F908F906D
S11336407F906F905F904F903F902F9008958F924E
S11336509F92AF92BF92CF92DF92EF92FF920F931D
S1133660CF93DF93CDB7DEB765970FB6F894DEBF7F
S11336700FBECDBF4C015B016A01022F622F7E0198
S11336800894E11CF11CC7010E94940381E0898322
S11336909601A501B701C4010E94181A65960FB6D8
S11336A0F894DEBF0FBECDBFDF91CF910F91FF9095
S11336B0EF90DF90CF90BF90AF909F908F90089540
S11336C0DC01FB0125E101900D922150E1F7DC01C1
S11336D05596FB01759685E101900D928150E1F7B5
S11336E00895AF92BF92CF92DF92EF92FF920F9321
S11336F0CF93DF93CDB7DEB765970FB6F894DEBFEF
S11337000FBECDBF5C016901202F7E010894E11C2E
S1133710F11CC7010E94BD07882339F0202FA601A0
S1133720B701C5010E947B0706C0402F5527B7018A
S1133730C5010E94954F65960FB6F894DEBF0FBE83
S1133740CDBFDF91CF910F91FF90EF90DF90CF909D
S1133750BF90AF9008952F923F924F925F926F92D5
S11337607F928F929F92AF92BF92CF92DF92EF920D
S1133770FF920F931F93CF93DF93CDB7DEB7C85556
S1133780D0400FB6F894DEBF0FBECDBF69969FAF91
S11337908EAF69976B014A01722E28011E2D56E1E6
S11337A0E52EF12CEC0EFD1E812F992767969FAF15
S11337B08EAF6797AC01C7010E94954F4BE2A42ED0
S11337C0B12CAC0EBD1E012F9201A601B701C5019B
S11337D00E94720C9201A601B501C7018A960E944B
S11337E0720C612FCE0101960E94940381E08983BB
S11337F0672DC4010E948D0A682E99271C01089424
S1133800210831086401C80ED91E0894C108D108E2
S11338108824992447C0F601A0808215930519F0E5
S113382038E0B32E0DC028E0B22E04C0AA0CAA0CB6
S1133830FEEFBF0E8A2D8295869586958370B1F32F
S1133840772428C0012F92017E010894E11CF11C09
S1133850A701B701C7010E94720C9201A701B70129
S1133860C7010E94720C8A2D829586958695837075
S113387069F045E1849FA00111244C0F5D1F4F5F47
S11338805F4F9201B701C7010E94720C82E0780E6B
S1133890AA0CAA0C7B14B0F20894811C911C089405
S11338A0C108D108862D992788199909019797FF8E
S11338B0B2CF67964EAD5FAD6797BE016F5F7F4F26
S11338C069968EAD9FAD69970E94954FC85ADF4F98
S11338D00FB6F894DEBF0FBECDBFDF91CF911F911D
S11338E00F91FF90EF90DF90CF90BF90AF909F909B
S11338F08F907F906F905F904F903F902F9008959E
S1133900AF92BF92CF92DF92EF92FF920F93CF9339
S1133910DF93CDB7DEB765970FB6F894DEBF0FBE61
S1133920CDBF5C017901202F6E010894C11CD11C0C
S1133930C6010E947B07882339F4402FB701C601D2
S11339400E949C0797FD07C0202FA701B601C5015F
S11339500E94BD0706C0402F5527B601C5010E942D
S1133960954F65960FB6F894DEBF0FBECDBFDF91BD
S1133970CF910F91FF90EF90DF90CF90BF90AF90D9
S113398008954F925F926F927F928F929F92AF921F
S1133990BF92CF92DF92EF92FF920F931F93CF9338
S11339A0DF93CDB7DEB7C455D0400FB6F894DEBF71
S11339B00FBECDBF2C0149013801AE2C1AA619A6A1
S11339C0FE01EC5AFF4F1082FE01ED5AFF4F1082A8
S11339D024E1CE0101960E94FB07E8E2BE2E2BC033
S11339E04B2D55277BE2E72EF12CEC0EFD1E60E0FB
S11339F070E0C7010E949E4F0B2D0451202FA3019C
S1133A00B601C7010E94CB06B82E1127A80160E0B9
S1133A1070E0C6010E949E4F84E18B1510F025E1F1
S1133A2002C02B2D2F5FCE010196AC01BE01655D56
S1133A307F4F0E947B0765E1C62ED12CCC0EDD1E84
S1133A4064E1C6010E94B906892B51F206C02A2DF1
S1133A50A401B801C8010E94BD074A2DB4018E011A
S1133A600F5F1F4FC8010E949C07181619067CF3AC
S1133A704A2D5527B801C2010E94954FCC5ADF4FF9
S1133A800FB6F894DEBF0FBECDBFDF91CF911F916B
S1133A900F91FF90EF90DF90CF90BF90AF909F90E9
S1133AA08F907F906F905F904F9008954F925F92A8
S1133AB06F927F928F929F92AF92BF92CF92DF923A
S1133AC0EF92FF920F931F93CF93DF93CDB7DEB79F
S1133AD0C455D0400FB6F894DEBF0FBECDBF2C0145
S1133AE04A013901A02E1AA619A6FE01EC5AFF4F6D
S1133AF01082FE01ED5AFF4F108244E1CE0101967F
S1133B000E94C303B8E2BB2E2BC04B2D5527ABE25A
S1133B10EA2EF12CEC0EFD1E60E070E0C7010E945D
S1133B209E4F0B2D0451202FA301B601C7010E9403
S1133B30CB06B82E1127A80160E070E0C6010E94F0
S1133B409E4F84E18B1510F025E102C02B2D2F5FD1
S1133B50CE010196AC01BE01655D7F4F0E947B07DB
S1133B60F5E1CF2ED12CCC0EDD1E64E1C6010E94FE
S1133B70B906892B51F206C02A2DA401B801C80147
S1133B800E94BD074A2DB4018E010F5F1F4FC8016B
S1133B900E949C07181619067CF34A2D5527B80174
S1133BA0C2010E94954FCC5ADF4F0FB6F894DEBF86
S1133BB00FBECDBFDF91CF911F910F91FF90EF907A
S1133BC0DF90CF90BF90AF909F908F907F906F9039
S1133BD05F904F900895BF92CF92DF92EF92FF9241
S1133BE00F931F93CF93DF93CDB7DEB724970FB610
S1133BF0F894DEBF0FBECDBF7C018C0100551F4F72
S1133C00F8011082118212821382148215821682A4
S1133C1017821086603119F086E090E08DC0DC01D7
S1133C20FA0180E101900D928150E1F7B701605FE4
S1133C307F4FF70184859585A685B78589839A8307
S1133C40AB83BC8334E0B32E20E1C22ED12C1AC046
S1133C502B2D33276901CC0CDD1CCC0CDD1CB701EA
S1133C606C0D7D1DFB01B291A29192918291BF01D5
S1133C706C5F7F4F89839A83AB83BC8323703070DE
S1133C80232BD1F59E012F5F3F4F4981F90181819B
S1133C90AB819C81E82FFF27E85CFD4F80818983FD
S1133CA0BB27A85CBD4F8C91F9018183E92FFF27C5
S1133CB0E85CFD4F80818B83E42FFF27E85CFD4F98
S1133CC080818C83EB2DE695E695FF27EE0FFF1F91
S1133CD0EE0FFF1FE45FFD4F89819A81AB81BC81A8
S1133CE0208131814281538182279327A427B527DC
S1133CF089839A83AB83BC83CE0CDF1C60517040F4
S1133D00FB0180819181A281B38129813A814B8118
S1133D105C8182279327A427B527F60180839183AA
S1133D20A283B383B394FBE2FB1508F091CF81E047
S1133D30F801808780E090E024960FB6F894DEBF07
S1133D400FBECDBFDF91CF911F910F91FF90EF90E8
S1133D50DF90CF90BF9008952F923F924F925F9241
S1133D606F927F928F929F92AF92BF92CF92DF9287
S1133D70EF92FF920F931F93CF93DF93CDB7DEB7EC
S1133D80C651D1400FB6F894DEBF0FBECDBF1C01A3
S1133D908B01141615060CF009C3DB01BC91CC5E33
S1133DA0DE4FB883C451D140BB2349F465E10E947E
S1133DB0940365E1C10145960E949403F7C2CC5E69
S1133DC0DE4FE881C451D140E430B9F449325105A1
S1133DD00CF4ECC20F5F1F4F24E1A80165E10E94BF
S1133DE09E030C5E1F4F24E1A80165E1C1014596C5
S1133DF00E949E0389E290E0DBC2CC5EDE4F8881A4
S1133E00C451D1408250823008F0D0C245315105AE
S1133E100CF4CCC20F5F1F4F24E1A80165E1C1017E
S1133E200E949E0305E12BE035E046EF54E0B1012A
S1133E306E010894C11CD11CC6010E94561D35E1B7
S1133E40E32E0BE015E026EF34E0A101B601C60134
S1133E500E94C11C26E1422E512C4C0E5D1E26EF01
S1133E6034E0A10160E275E0C2010E94C11C05E1D9
S1133E7026EF34E0A601B201C2010E94801C26EFA5
S1133E8034E045E355E0B201C2010E94801CC10147
S1133E904596CE5EDE4F99838883C251D140DE01C0
S1133EA09B96CB5EDE4FB983A883C551D14095E183
S1133EB0992EE92D1D92EA95E9F784E08BA785E513
S1133EC0C82ED12CCC0EDD1E00E4602E712C6C0E9D
S1133ED07D1E8E01055D1F4F25E146EF54E0B601BE
S1133EE0C3010E94300BD6018C918330B1F481E080
S1133EF08BA725E1A801B301C3010E947B0706EF4C
S1133F0014E025E1A301B201CE5EDE4F88819981E0
S1133F10C251D1400E94AB1B25C218E0A12EABA612
S1133F20B5E1EB2E8E01055D1F4F25E146EF54E010
S1133F30B601C3010E94300BF6018081853009F07F
S1133F4067C0A4E98A2E912C8C0E9D1E25E141E0C8
S1133F50B201C4010E94AE0A45E166EF74E0C401F7
S1133F600E949C0797FD07C025E146EF54E0B40189
S1133F70C4010E94BD07FAE6AF2EB12CAC0EBD1EE3
S1133F80E5E1EE2E06EF14E025E1A301B401C5013D
S1133F900E94AB1B7FE7C72ED12CCC0EDD1E05E1A2
S1133FA02BE035E046EF54E0B501C6010E94561DF2
S1133FB00BE015E026EF34E0A401B601C6010E942F
S1133FC0C11C81E08BA705E126EF34E0AE01455D1D
S1133FD05F4FB601C6010E94711B0BE015E026EF8E
S1133FE034E0A501B201CE5EDE4F88819981C251D1
S1133FF0D1400E94C11C26EF34E0A601CE5EDE4F04
S113400068817981C251D140CB010E94C11CAAC1EF
S1134010ABA665E1E62E8E01055D1F4F25E146EF57
S113402054E0B601C3010E94300BD6016C9161309B
S113403009F098C1FE01E158FF4FDF011D929A94E7
S1134040E9F760836BA7D301E6EFF4E085E1019023
S11340500D928150E1F78E01005C1F4F25E1AE0106
S1134060455D5F4FB801C8010E947B0725E141E02F
S1134070B801C8010E94EE0A6AC1FE01E755FF4F6C
S113408085E1DF011D928A95E9F782E08083DE01F4
S1134090A254BF4FF80185E101900D928150E1F7E0
S11340A0FE01ED52FF4F95E1DF01892F1D928A95A4
S11340B0E9F781E08083FE01E851FF4FDF011D92A3
S11340C09A95E9F781838E01005C1F4F65E1C80171
S11340D00E94AF0C9C012150304037FDC2C0C90181
S11340E068E070E00E941F4F2B01400E511EC90171
S11340F068E070E00E941F4F21E030E002C0220F10
S1134100331F8A95E2F7322E58EE652E712C6C0E11
S11341107D1E43EDC42ED12CCC0EDD1E35E1E32EE5
S11341200BE015E026EF34E0A301B601C6010E94BE
S1134130C11CF2018081832109F445C026EF34E0DB
S1134140AE014A5E5F4FB601C3010E94C11C2DEF50
S1134150822E912C8C0E9D1E26EF34E0A601BE010A
S113416061587F4FC4010E94C11C9EEBA92EB12C43
S1134170AC0EBD1E89EAC82ED12CCC0EDD1E26EF56
S113418034E0A501B601C6010E94C11C05E126EF79
S113419034E0A401B601C6010E94711B2BE035E096
S11341A046EF54E0B501C5010E94561D26EF34E0E8
S11341B0A301B501C5010E94711B26EF34E0A301E0
S11341C0B501C5014BC0D301F60185E101900D9203
S11341D08150E1F7B9EACB2ED12CCC0EDD1EAEEB2B
S11341E0AA2EB12CAC0EBD1EF5E1EF2E0BE015E0AE
S11341F026EF34E0A601B501C5010E94C11CE3ED20
S11342006E2E712C6C0E7D1E7DEF872E912C8C0EE4
S11342109D1E26EF34E0A301BE0161587F4FC40107
S11342200E94C11C05E126EF34E0A401B501C501DB
S11342300E94711B2BE035E046EF54E0B601C60145
S11342400E94561D26EF34E0A301B601C6010E9468
S1134250711B26EF34E0A301B601C6010E94711B55
S113426053CFDE01A659BF4FFE01E755FF4F85E14D
S113427001900D928150E1F7DE01AC56BF4FFE0173
S1134280ED52FF4F85E101900D928150E1F76AE60E
S1134290C62ED12CCC0EDD1ED6018C9180FF07C01A
S11342A025E146EF54E0B601C6010E947B0725E1F3
S11342B041E0B601C6010E94EE0A55E5E52EF12C57
S11342C0EC0EFD1E05E12BE035E046EF54E0B601AF
S11342D0C7010E94561D45E1BE016A5E7F4FC701BA
S11342E00E949C07892B69F4CE5EDE4FE881F98138
S11342F0C251D140D60185E10D900192815091F1D6
S1134300FBCF4BE2C42ED12CCC0EDD1E8E010C56FD
S11343101F4F45E1B601C8010E949C0718161906F3
S113432074F425E1A601B801C8010E947B0745E1A8
S113433066EF74E0C8010E949C0797FD13C0CE018C
S113434081589F4F25E1A601BC010E947B078E0185
S113435001581F4F45E166EF74E0C8010E949C07B5
S113436097FD8BCE20E0CC5EDE4FB881C451D140A6
S1134370B23009F421E081E028273327F10185894F
S11343809927817090702817390769F005E126EFA5
S113439034E0CE5EDE4F48815981C251D140B9012B
S11343A0CA010E94711B85E190E002C08FEF9FEF6C
S11343B0CA5EDE4F0FB6F894DEBF0FBECDBFDF91ED
S11343C0CF911F910F91FF90EF90DF90CF90BF900E
S11343D0AF909F908F907F906F905F904F903F90A1
S11343E02F900895CF93DF93FC01EC012896DB0115
S11343F088E00D9009928150E1F787E0DF011D927A
S11344008A95E9F781E08783DF91CF9108951F9220
S11344100F920FB60F9211242F933F934F935F93F4
S11344206F937F938F939F93AF93BF93EF93FF9378
S11344308091B0008093B0008091B60081FDFCCFE4
S11344408091B30099270196AA27BB272091610484
S1134450309162044091630450916404280F391F21
S11344604A1F5B1F209361043093620440936304EA
S11344705093640478940E944F16FF91EF91BF917A
S1134480AF919F918F917F916F915F914F913F91E8
S11344902F910F900FBE0F901F90189521E020933D
S11344A097052093A6062091840030918500BC01D5
S11344B0C9010E94F00108958FB7F894282F33277B
S11344C0922F80910A02882331F480914D04823026
S11344D011F42FBF13C09FBF8FB7F894282F332731
S11344E080914D04882369F482E080934D041092F6
S11344F00A022FBF0E943C01209A289A81E090E092
S113450008952FBF80E00E94610180E090E008954B
S11345101F93982F1FB7F89480914C04823099F51B
S113452080910702891779F58091050220E030E037
S11345308F3F11F421E030E0232BF1F49FEF9093AF
S113454007028F3F19F42FEF30E00DC0282F3327D7
S1134550F901E658FB4F8081809305028F3F11F4E7
S11345609093060290832093770481E080934C0417
S113457082E00E94030105C08FEF8093070210922E
S11345804C0421E001C020E0812F99278FBF90E0E7
S1134590213009F491E081E09827892F99271F9110
S11345A008950F931F93982F1FB7F89480914D048B
S11345B0823099F580910A02891779F58091080271
S11345C020E030E08F3F11F421E030E0232BF1F4C0
S11345D09FEF90930A028F3F19F42FEF30E00DC044
S11345E0282F3327F901ED56FA4F80818093080272
S11345F08F3F11F49093090290832093940581E0F6
S113460080934D0489E00E94030105C08FEF8093DD
S11346100A0210924D0401E001C000E0812F9927A5
S11346208FBF1FB7F89480914D04882311F40E9422
S11346302A01812F99278FBF90E0013009F491E07E
S113464081E09827892F99271F910F910895EF9260
S11346500F931F93AE2D99E0899FF0011124EE561C
S1134660F94F4083518362837383048315832683C4
S11346703783A17080858E7F8A2B8260808781E05A
S11346800E9403011F910F91EF900895EF920F93F1
S11346901F9380910002909101022091480430916F
S11346A04904019749F4C901019690934904809300
S11346B048040E94140314C0C9010196909349044C
S11346C0809348040E9414030E945214AB01BC015D
S11346D0EE2400ED17E020E030E080E00E94272384
S11346E01F910F91EF90089580917E04823031F4F0
S11346F081E080937E0484E00E94030108954F9238
S11347005F926F927F928F929F92AF92BF92CF925D
S1134710DF92EF92FF920F931F93CF93DF93EC01FD
S113472080914F04882309F08DC18091D30E853088
S113473009F088C10E945C22882309F483C1809116
S1134740DB0A882309F07EC1BE0182E00E945A027E
S1134750882311F490E006C0CB58DF4F9981C557E8
S1134760D0409F7080911006981781F090931006A6
S1134770289885EC8EBD0DB407FEFDCF8EB59068EC
S11347809EBD0DB407FEFDCF8EB5289A4E01089448
S1134790811C911CF4018181298140E09927982F83
S11347A088273327822B932B87749C7C81549848C9
S11347B009F441E0442301F1289886E88EBD0DB444
S11347C007FEFDCF8EB51EBC0DB407FEFDCF8EB522
S11347D0289A99278F7190702091900540917B04BD
S11347E0240F312D311D43E0359527954A95E1F786
S11347F0281739070CF426C1289882EC8EBD0DB415
S113480007FEFDCF8EB589E08EBD0DB407FEFDCF4A
S11348108EB5289A0E94BA017B018C01BE0184E006
S11348200E945A02882319F4E0E0F0E005C0888170
S11348308550FE01E80FF11D289881E88EBD0DB466
S113484007FEFDCF8EB51EBC0DB407FEFDCF8EB5A1
S1134850289A8F71893079F0289882EC8EBD0DB436
S113486007FEFDCF8EB586E08EBD0DB407FEFDCFED
S11348708EB5289AE7C08FB7F89499272F9A20917C
S11348808400309185008FBF2F98289880E68EBDD4
S113489098810DB407FEFDCF8EB59EBD792F725061
S11348A0773010F4672F01C067E0D401962F4D9143
S11348B00DB407FEFDCF8EB54EBD9150C1F76150CA
S11348C02401460E511C6F5F0894411C511C2E1983
S11348D03F092E553F4F3901882477FC8094982C4A
S11348E06E0C7F1C801E911E309719F4972F961B17
S11348F045C02081E1808281A3809927AA27BB2714
S1134900BA2FA92F982F8827332744275527522FAA
S1134910442733272227FF24002711278701FF2458
S1134920EE242E293F29402B512BBB24CC24DD24FB
S11349302A293B294C295D29822B932BA42BB52BA7
S113494086199709A809B9098383292F3A2F4B2F70
S1134950552722839D014427552721838B2F99278F
S1134960AA27BB278083C2CFD2012C910DB407FEA6
S1134970FDCF0894411C511C8EB52EBD9150A0F75B
S11349800DB407FEFDCF8EB5289A289882EC8EBD13
S11349900DB407FEFDCF8EB586E08EBD0DB407FEC7
S11349A0FDCF8EB5289A3097D1F12081E1808281A4
S11349B0A3809927AA27BB27BA2FA92F982F882726
S11349C0332744275527522F442733272227FF24F0
S11349D0002711278701FF24EE242E293F29402B8D
S11349E0512BBB24CC24DD242A293B294C295D29C5
S11349F0822B932BA42BB52B860D971DA81DB91DB7
S1134A008383292F3A2F4B2F552722839D01442737
S1134A10552721838B2F9927AA27BB278083BE0183
S1134A2081E00E94AC01C059DF4F688279828A829A
S1134A309B8286E08093D30E84E080934F0480E0D1
S1134A4090E002C085E090E0DF91CF911F910F913B
S1134A50FF90EF90DF90CF90BF90AF909F908F909A
S1134A607F906F905F904F900895AF92BF92CF92D6
S1134A70DF92EF92FF920F931F93CF93DF93809176
S1134A80DB0A882309F40CC10E945C22882309F400
S1134A9007C18FB7F8949927C0919105D0919205D9
S1134AA08FBF1092DB0A28988FE88EBD0DB407FEE5
S1134AB0FDCF8EB51EBC0DB407FEFDCF8EB5289A72
S1134AC0982F80914F04833011F0873031F485E0C2
S1134AD08093D30E88E080934F04A92EBB24A2FEBA
S1134AE06DC080914F04863019F410924F0403C0B6
S1134AF0882309F063C0943009F04BC0289886E8F5
S1134B008EBD0DB407FEFDCF8EB51EBC0DB407FEE1
S1134B10FDCFFEB4289A2FE1F22280917B04982FD6
S1134B2096959695EF2DE91B8E0F80937B0400914B
S1134B305E0410915F04F801EC58FF4F80818B7F75
S1134B408083B80183E00E94AC010B581F4FF80129
S1134B50F1820E94BA016B017C0100915E04109104
S1134B605F04B80181E00E94AC0100591F4FCC19C9
S1134B70DD092797CE01AA2797FDA095BA2F8C0DA2
S1134B809D1DAE1DBF1DF80180839183A283B38355
S1134B9012C0E0915E04F0915F04EC58FF4F8081F5
S1134BA0877F8083E0915E04F0915F04EC58FF4FAF
S1134BB080818D7F808385E080934F04A3FE70C045
S1134BC080914F04843009F04EC085E08093D30E69
S1134BD010924F0480916004833019F410926004A1
S1134BE05FC0C091DA0ED091DB0ECE010E94DF01CE
S1134BF0882389F18A8129819927982F8827332747
S1134C00822B932B87749C7C8154984821F58F8147
S1134C102E819927982F88273327822B932B8F5FF8
S1134C209F4FC9F090E08091A606882309F491E093
S1134C30992389F012E01093970581E08093A606EA
S1134C40809184009091850069E973E00E94F001ED
S1134C501093600425C01092600410927F0480E0D9
S1134C600E941A021DC08530D9F42091900528981D
S1134C7086E88EBD0DB407FEFDCF8EB51EBC0DB407
S1134C8007FEFDCF8EB5289A8F71922F9695969533
S1134C90891B280F2093900589E080934F0408C056
S1134CA090914F04992309F4E8C2993009F015C290
S1134CB0289880E28EBD0DB407FEFDCF8EB51EBCD4
S1134CC00DB407FEFDCF8EB5482F5527433008F4A9
S1134CD09CC3842F9927823791050CF096C31EBC80
S1134CE0E0915E04F0915F044083542F525057309A
S1134CF010F4452F01C047E0DF011196242FFD0178
S1134D0060E070E00DB407FEFDCF8EB51EBC9927A0
S1134D1081936827062E6295607F6025072E762F83
S1134D2062956F700626669576276727660F660F6D
S1134D30660F6025215031F74150A40FB11D4F5F1C
S1134D401196E0915E04F0915F04818190E0877098
S1134D50823009F491E0992349F020E030E0809119
S1134D606004823081F421E030E00DC08FB7F89404
S1134D70282F332790E08091D50A833008F491E0FE
S1134D802FBF292F3327232B09F45EC0952F941BA3
S1134D9018C00DB407FEFDCF8EB51EBC8C938D914B
S1134DA06827062E6295607F6025072E762F629510
S1134DB06F700626669576276727660F660F660F5F
S1134DC06025915030F70DB407FEFDCF8EB51EBCA3
S1134DD09B012827022E2295207F2025032E322F87
S1134DE022952F700226269532272327220F220F81
S1134DF0220F20250DB407FEFDCF8EB51EBC28273B
S1134E00022E2295207F2025032E322F22952F70EB
S1134E100226269532272327220F220F220F202530
S1134E200DB407FEFDCF8EB5E0915E04F0915F04F2
S1134E30EB58FF4F8083289A15E01093D30E1092FD
S1134E404F04232B31F015C20DB407FEFDCF8EB5F0
S1134E50DCC2E0905E04F0905F0467010894C11C1A
S1134E60D11CF701818190E0282F332727703070FF
S1134E702230310509F491E080916004992321F1F5
S1134E80823009F025C1F7019381E091DA0EF091A7
S1134E90DB0E8381981709F01BC12230310509F01C
S1134EA017C180916F008D7F80936F001092A606CA
S1134EB0BF0180E00E94AC011092600410927F0454
S1134EC080E00E941A0204C18823C9F4C7010E9429
S1134ED027028823A1F01093110682E08093120622
S1134EE010921306F70183818093140681E196E002
S1134EF00E947F23882319F483E080936004009147
S1134F00840010918500C7010E942702882311F0B4
S1134F10045E1C4F10938B0600938A0680918400D4
S1134F20909185009801281B390B12161306A4F4DE
S1134F3080917F04882369F490E08091A6068823F9
S1134F4009F491E0992341F0C9010E944E2280E8BE
S1134F5001C0806880937F04F601808527819927AA
S1134F60582F44273327422B532B80916504282F35
S1134F703327F901EE0FFF1FE452F54F8081918131
S1134F807091A7068417950769F4F901EC52F14F63
S1134F908081871709F467C0872F8F5F8093A706E6
S1134FA080831DC000E010E080E090E0CCEDDAE00A
S1134FB0E4EDFEE0DF01682F9C018881998184176C
S1134FC0950779F4209365049091A7068C9189172D
S1134FD009F449C0892F8F5F8093A7068C9300E85A
S1134FE029C08081972F981B091710F4092F122FBD
S1134FF06F5FC9010196119622963196853091050D
S1135000D1F66530B9F410936504A12FBB27FD01D7
S1135010EE0FFF1FE452F54F518340838091A706A2
S11350208F5F8093A706FD01EC52F14F8083A45259
S1135030B14F1C929091A706892F8F778F3779F4FF
S11350400F3768F0E4EDFEE0292F207880818F6728
S11350508913208331968EE0E93DF807B9F78091F2
S11350606504282F3327F6019281A22FBB27FD0167
S1135070E452F14F808180FF07C0FD01EA52F54FF1
S11350808081981729F102C081608083AA52B54FAC
S11350909C93DFB6F8948091D50A8330B0F4E09104
S11350A0EF0AE80FE33008F0E350FF27EE0FFF1F8D
S11350B0EE5AFB4F00811181F182E0828F5F809371
S11350C0D50A85E00E94030178018D2D99278FBFB1
S11350D0F0925F04E0925E04C3C0892F8150833054
S11350E008F09CC081508230E0F43091D30E31300E
S11350F0C1F420E08091A606882309F421E022234C
S113510081F02F9883E0809397053093A6068091D1
S11351108400909185006BE273E00E94F00182E0CC
S113512068C0933009F042C08091D30E833009F0F7
S113513097C00E945C228823C9F128988FE88EBD0D
S11351400DB407FEFDCF8EB51EBC0DB407FEFDCF1A
S11351508EB5289A8091810080648093810080E2DA
S113516086BB80916F00806280936F00909176047B
S1135170289888EC8EBD0DB407FEFDCF8EB59066E1
S11351809EBD0DB407FEFDCF8EB5289A289882ECFB
S11351908EBD0DB407FEFDCF8EB586E08EBD0DB479
S11351A007FEFDCF8EB5289A84E023C080914F047A
S11351B08150823000F58091D30E8530E1F40E9455
S11351C05C228823C1F0289882EC8EBD0DB407FEC2
S11351D0FDCF8EB583E08EBD0DB407FEFDCF8EB539
S11351E0289A80916F008F7D80936F001092DB0A64
S11351F083E08093D30E90914F04913041F48091D9
S1135200D30E8330B1F52F9A9093D30E25C09230EC
S113521039F58091D30E833061F51EC0973001F5C6
S11352200E945C228823E1F090917604289888EC0F
S11352308EBD0DB407FEFDCF8EB590669EBD0DB438
S113524007FEFDCF8EB5289A8091D30E853021F4C8
S113525084E08093D30E04C088E080934F0404C09C
S113526080914F04883029F410924F0483E00E9407
S1135270030180914F04882309F58091D30E853072
S1135280D1F48091DB0A8823B1F4809160048823EF
S113529091F480917F04882371F490E08091A606B4
S11352A0882309F491E0992331F00E9474238091BA
S11352B04F04882319F487E00E9403018091A60615
S11352C0823009F095C01092A606F0909705F2E09E
S11352D0FF1609F469C023E0F21609F46DC081E0F9
S11352E0F81609F085C020918A0630918B068091CA
S11352F084009091850040917F04403829F41092F5
S11353007F040E94742374C08901081B190B47FF92
S113531003C01016110604F1C0917C04D0917D04E1
S1135320809160048823C1F4CE010E947F239927D1
S1135330882369F4FE01EC58FF4F80818E7F8083BF
S1135340F0926004D093DB0EC093DA0E29C0992743
S1135350F82E882329F102C065E0F62E20917F04FF
S1135360822F99278F77019759F420782260209310
S11353707F0480E198E00E9468020E944E2238C0B7
S113538027FF0AC0101611063CF480E880937F04BE
S1135390C8010E944E2202C010927F048F2D09C0C2
S11353A083E080937F0424C01092600410927F04F1
S11353B080E00E941A021CC08091D30E823019F43E
S11353C0F092D30E13C080914F04863079F410927A
S11353D04F04289881E88EBD0DB407FEFDCF8EB52D
S11353E01EBC0DB407FEFDCF8EB5289A0E941A2A62
S11353F08FB7F894282F332780917504813061F09A
S113540081E0809375042FBF3ACB289A85E080937E
S1135410D30E10924F042DCF109275042FBFDF913D
S1135420CF911F910F91FF90EF90DF90CF90BF909D
S1135430AF9008958FB7F894282F3327809175047F
S1135440882329F08068809375042FBF089581E034
S1135450809375042FBF0E943525089578941F9278
S11354600F920FB60F9211242F933F934F935F9394
S11354706F937F938F939F93AF93BF93EF93FF9318
S1135480E6E8F0E080819181208131818FB7F89442
S11354909927309392052093910521E02093DB0A0C
S11354A08FBF0E941A2AFF91EF91BF91AF919F91F4
S11354B08F917F916F915F914F913F912F910F90B9
S11354C00FBE0F901F90189578941F920F920FB6ED
S11354D00F9211242F933F934F935F936F937F9376
S11354E08F939F93AF93BF93EF93FF9380916F003C
S11354F08D7F80936F0078949FB7F8948091A6066F
S1135500813019F482E08093A606892F99278FBFF2
S11355100E941A2AFF91EF91BF91AF919F918F91B1
S11355207F916F915F914F913F912F910F900FBE9B
S11355300F901F9018958FB7F894282F33278091D8
S11355407504815080937504803811F02FBF08953D
S113555081E0809375042FBF0E94352508951F9321
S11355608FB7F8949927209175042F5F20937504C1
S11355708FBF80917E04882311F015E023C08091B1
S11355804F048823E1F48091D30E813049F490E0F4
S11355908091A606882309F491E0992381F005C03F
S11355A0853019F489E090E00CC083E080934F04C7
S11355B00E941A2A85E080937E0410E003C085E0EF
S11355C090E0182F0E949B2A812F99271F910895FC
S11355D01F93FC018FE3828780914E048F5F809339
S11355E04E0483832FB7F8943327809175048F5F1B
S11355F0809375042FBF80917E04882311F015E0F9
S11356000DC0F0932107E093200781E080937E048E
S11356101092A80684E00E94030110E00E949B2AD5
S1135620812F99271F9108951F93CF93DF93182FEC
S1135630FA01A22F253618F086E090E08EC0EA0128
S1135640219689812181B0E09927582F4427332757
S1135650422B532BCA0187749C7C8154984809F4CB
S1135660B1E0BB2349F4CA018073907081649868E7
S11356708183892F99278983A35FA0832FB7F89407
S1135680332780910202909103022FBF8087892FD4
S1135690992781872FB7F8943327809104022FBF6D
S11356A099278483158213876683872F9927878395
S11356B08FB7F894282F332780914C04882371F4F2
S11356C082E080934C04109207022FBFCF010E9406
S11356D0E82A9927182F882399F00FC02FBFF09339
S11356E07904E09378048FB7F894C82FDD272C2F22
S11356F080914C04882399F406C080E00E9488229B
S1135700812F99272AC081E080934C04109277045A
S113571082E00E940301CFBF80E090E01EC0809130
S11357207A048F3F89F4E0910602EE2369F010C0F9
S11357301092050204C0FF27E658FB4F1082109216
S1135740060280E090E002C085E090E02FBF05C033
S1135750809105028F3F79F7EBCFDF91CF911F91B5
S11357600895CF93DF93FB01DB0116968683892F7F
S11357709927ED01898388E0838780918C06909135
S11357808D06892B19F085E090E02BC0F0938D06EF
S1135790E0938C06435F40834D5080910B02882335
S11357A019F480E090E01DC08385ED0169817727BD
S11357B0762F662726813327622B732B10920B02D8
S11357C0242FAF010E94142B9927282F882339F006
S11357D081E080930B0210928D0610928C06822F2A
S11357E09927DF91CF9108950F931F93CF93DF9360
S11357F0EC018B0180914B04813019F481E090E03D
S11358002EC061E389EA96E00E942B03FC018A81A1
S11358109B818183892F992780838FEF85831482CD
S11358208C819D818383892F99278283168220E02E
S1135830A8016AE2CF0107960E945C0381E080938D
S11358404B04D093EE0AC093ED0A10920F0641E385
S113585069EA76E08FEF9FEF0E94B12B9927DF91E1
S1135860CF911F910F9108950F931F93CF93DF93BF
S1135870182FEB01042FE82FFF27EE0FFF1FE4572B
S1135880F94F1182108210920B02E0918C06F09174
S11358908D06309721F08091F00A80FF0EC081E0E0
S11358A080930B0203C08BE00E9403011123B9F41F
S11358B0602FCE010E94F20012C020812D503327A8
S11358C067817727762F662786819927682B792B1E
S11358D0AF0183850E94142B882341F3E4CFDF9129
S11358E0CF911F910F9108951F93CF93DF932FB7FB
S11358F0F8943327809175048F5F809375042FBFCC
S113590040917E04413061F58091A8068F5F8093B9
S1135910A806863028F52091200730912107809130
S11359207F048823C1F490E08091A606882309F4BB
S113593091E0992381F030937D0420937C0440937B
S11359407F048BED91E10E9468020E944E22109226
S1135950F50A83E024C085E08093F50A82E01FC045
S113596010927E040E949B2A1091F50AC091200790
S1135970D09121078A858F33B1F480E00E94882278
S113598080910B02882379F460918C0670918D06C6
S11359906C177D0741F4412F0E94342C04C080937E
S11359A07E040E949B2ADF91CF911F9108952F922C
S11359B03F924F925F926F927F928F929F92AF929B
S11359C0BF92CF92DF92EF92FF920F931F93CF93E8
S11359D0DF93CDB7DEB7C259D1400FB6F894DEBF1E
S11359E00FBECDBF5B016C0190909A0691FE20C062
S11359F02091920630919306409194065091950619
S1135A00E0909606F09097060091980610919906FA
S1135A10DC01CB01821B930BA40BB50B8E159F05E8
S1135A20A007B10728F0E2E9F6E060E070E022C0E8
S1135A30EBE9F6E09090A30691FE46C420919B0604
S1135A4030919C0640919D0650919E06E0909F06E1
S1135A50F090A0060091A1061091A206A21AB30A22
S1135A60C40AD50AAE14BF04C006D10608F42CC477
S1135A7061E070E090FE04C080858D7F808708C05F
S1135A802E0D3F1D401F511F2083318342835383BA
S1135A90662389F0613009F017C42091F404309131
S1135AA0F504C901AA27BB27805D9740A040B040F8
S1135AB00CF4D8C3DCC320914804309149042F5F0F
S1135AC03F4F309349042093480480910002909101
S1135AD001028A83892F992789832C83832F99270D
S1135AE08B8380918304909184048F3F910519F4F2
S1135AF0822F0E9414038FEF8093870484E08093A5
S1135B00D60489819A81AB81BC8180938804909367
S1135B108904A0938A04B0938B0480914B04813050
S1135B2009F497C380918204833009F092C365E23B
S1135B3089EA96E00E942B03C357DE4F998388833A
S1135B40CD58D1400796C157DE4F99838883CF58EB
S1135B50D1408091830490918404C357DE4FE8813F
S1135B60F981CD58D1408183892F992780838091F1
S1135B708504909186048383892F99278283809159
S1135B80870499278583148282E0868324E0208712
S1135B9017824BED54E060E1CE018B539F4F0E947E
S1135BA0EB1D882309F055C32090EB043090EC04DE
S1135BB04090ED045090EE046090EF047090F00477
S1135BC08090F1049090F204C357DE4FE881F9818C
S1135BD0CD58D140208A08E0222D332D442D552D57
S1135BE0662D772D882D992D0E94F94DC357DE4FD0
S1135BF0E881F981CD58D140278700E1222D332D4A
S1135C00442D552D662D772D882D992D0E94F94D03
S1135C10C357DE4FE881F981CD58D140268708E18A
S1135C20222D332D442D552D662D772D882D992D1C
S1135C300E94F94DC357DE4FE881F981CD58D14018
S1135C40258700E2222D332D442D552D662D772DE9
S1135C50882D992D0E94F94DC357DE4FE881F981B3
S1135C60CD58D140248708E2222D332D442D552DC3
S1135C70662D772D882D992D0E94F94DC357DE4F3F
S1135C80E881F981CD58D140238700E3222D332DBB
S1135C90442D552D662D772D882D992D0E94F94D73
S1135CA0C357DE4FE881F981CD58D140228708E3FC
S1135CB0222D332D442D552D662D772D882D992D8C
S1135CC00E94F94DC357DE4FE881F981CD58D14088
S1135CD021878090EB049090EC04A090ED04B090A8
S1135CE0EE04C090EF04D090F004E090F104F09042
